:100000000C9461000C9473000C9473000C947300B6
:100010000C9473000C9473000C9473000C94730094
:100020000C9473000C9473000C9473000C94730084
:100030000C9473000C9473000C9473000C94730074
:100040000C9424010C9473000C9473000C947300B2
:100050000C9473000C9473000C9473000C94730054
:100060000C9473000C94730000000000240027001F
:100070002A000000000023002600290000000000E4
:10008000250028002B0004040404040404040202D4
:100090000202020203030303030301020408102007
:1000A0004080010204081020010204081020000012
:1000B0000008000201000003040700000000000027
:1000C000000011241FBECFEFD8E0DEBFCDBF21E07E
:1000D000A0E0B1E001C01D92A930B207E1F70E9493
:1000E0006E010C9460020C940000833081F028F4BF
:1000F000813099F08230A9F008958730A9F08830D6
:10010000C9F08430B1F4809180008F7D03C080916C
:1001100080008F7780938000089584B58F7784BDA9
:10012000089584B58F7DFBCF8091B0008F77809349
:10013000B00008958091B0008F7DF9CF1F93CF93C9
:10014000DF93282F30E0F901E255FF4F8491F90148
:10015000E656FF4FD491F901EA57FF4FC491CC23E3
:10016000A9F0162F81110E947500EC2FF0E0EE0F20
:10017000FF1FE458FF4FA591B4918FB7F894EC910D
:10018000111108C0D095DE23DC938FBFDF91CF9192
:100190001F910895DE2BF8CF3FB7F89480910501A9
:1001A00090910601A0910701B091080126B5A89B86
:1001B00005C02F3F19F00196A11DB11D3FBFBA2FF9
:1001C000A92F982F8827BC01CD01620F711D811DB9
:1001D000911D42E0660F771F881F991F4A95D1F73E
:1001E00008958F929F92AF92BF92CF92DF92EF923B
:1001F000FF926B017C010E94CC004B015C01C11499
:10020000D104E104F104B9F00E94CC006819790925
:100210008A099B09683E73408105910580F321E0BE
:10022000C21AD108E108F10888EE880E83E0981E12
:10023000A11CB11CE4CFFF90EF90DF90CF90BF9056
:10024000AF909F908F9008951F920F920FB60F92CC
:1002500011242F933F938F939F93AF93BF938091DC
:10026000010190910201A0910301B091040130912C
:10027000000123E0230F2D3758F50196A11DB11D74
:10028000209300018093010190930201A093030148
:10029000B09304018091050190910601A09107019E
:1002A000B09108010196A11DB11D809305019093A5
:1002B0000601A0930701B0930801BF91AF919F91F0
:1002C0008F913F912F910F900FBE0F901F90189517
:1002D00026E8230F0296A11DB11DD2CF789484B5D4
:1002E000826084BD84B5816084BD85B5826085BD32
:1002F00085B5816085BD80916E00816080936E00C0
:1003000010928100809181008260809381008091B1
:100310008100816080938100809180008160809362
:1003200080008091B10084608093B1008091B00022
:1003300081608093B00080917A00846080937A001D
:1003400080917A00826080937A0080917A00816047
:1003500080937A0080917A00806880937A0010926E
:10036000C10022E030E0F901E656FF4F4491F90167
:10037000EA57FF4F8491882399F090E0880F991FE6
:10038000FC01E859FF4FA591B491FC01E458FF4FDF
:10039000859194918FB7F894EC91E42BEC938FBFF7
:1003A0002F5F3F4F2B303105F1F6C7EAD0E0FE0159
:1003B000249103E910E0F80184918823C9F090E0CA
:1003C000880F991FFC01E859FF4FA591B491FC01DA
:1003D000E458FF4F459154913FB7F8949C91822F78
:1003E000809598239C93FA019081892380833FBF55
:1003F0002BEBE22E20E0F22E30E0C32E30E0D32EA5
:10040000F7018491FE01A490F801B490B1102CC0C2
:1004100092E0B92E61E08B2D0E949E0064E670E0B0
:1004200080E090E00E94F10060E08B2D0E949E0031
:10043000B394FBE0BF12EECF61E08B2D0E949E00D3
:1004400064E670E080E090E00E94F10060E08B2DB7
:100450000E949E00BA9481E0B812EECFC114D1047C
:1004600079F20E940000CCCF81110E947500EB2D23
:10047000F0E0EE0FFF1FEE58FF4FA591B4918C9165
:10048000A82209F4C5CF61E086E00E949E0061E0E9
:1004900087E00E949E0064EF71E080E090E00E949F
:1004A000F10060E086E00E949E0060E087E00E942C
:1004B0009E0064EF71E080E090E00E94F100CECFFA
:0404C000F894FFCFDE
:00000001FF
