:100000000C9462000C948A000C948A000C948A0070
:100010000C948A000C948A000C948A000C948A0038
:100020000C948A000C948A000C948A000C948A0028
:100030000C948A000C948A000C948A000C948A0018
:100040000C9446040C948A000C9414040C94EE0353
:100050000C948A000C948A000C948A000C948A00F8
:100060000C948A000C948A000000000023002600F3
:10007000290000000000240027002A0000000000E2
:10008000250028002B0004040404040404040202D4
:100090000202020203030303030301020408102007
:1000A0004080010204081020010204081020000012
:1000B0000008000201000003040700000000000027
:1000C0000000BC0511241FBECFEFD8E0DEBFCDBFBE
:1000D00011E0A0E0B1E0EAEBFFE002C005900D9274
:1000E000A033B107D9F721E0A0E3B1E001C01D9230
:1000F000AA3DB207E1F710E0C2E6D0E004C02197C4
:10010000FE010E94D507C136D107C9F70E94D50468
:100110000C94DB070C940000AF92BF92CF92DF9259
:10012000EF92FF920F931F93CF93DF936C017B01AC
:100130008B01040F151FEB015E01AE18BF08C0173D
:10014000D10759F06991D601ED91FC910190F081B0
:10015000E02DC6010995892B79F7C501DF91CF9173
:100160001F910F91FF90EF90DF90CF90BF90AF90D5
:100170000895FC01538D448D252F30E0842F90E0AD
:10018000821B930B541710F0CF9608950197089592
:10019000FC01918D828D981761F0A28DAE0FBF2F5B
:1001A000B11D5D968C91928D9F5F9F73928F90E0B1
:1001B00008958FEF9FEF0895FC01918D828D981720
:1001C00031F0828DE80FF11D858D90E008958FEF5D
:1001D0009FEF0895FC01918D228D892F90E0805C26
:1001E0009F4F821B91098F73992708958DE391E0AA
:1001F0000E94EA0021E0892B09F420E0822F089573
:1002000080E090E0892B29F00E94F60081110C9487
:1002100000000895FC01A48DA80FB92FB11DA35AA9
:10022000BF4F2C91848D90E001968F739927848F16
:10023000A689B7892C93A089B1898C918370806439
:100240008C93938D848D981306C00288F389E02DDA
:1002500080818F7D80830895EF92FF920F931F938B
:10026000CF93DF93EC0181E0888F9B8D8C8D981369
:100270001AC0E889F989808185FF15C09FB7F89475
:10028000EE89FF896083E889F989808183708064C1
:1002900080839FBF81E090E0DF91CF911F910F910C
:1002A000FF90EF900895F62E0B8D10E00F5F1F4F1B
:1002B0000F731127E02E8C8D8E110CC00FB607FC2A
:1002C000FACFE889F989808185FFF5CFCE010E94B8
:1002D0000A01F1CFEB8DEC0FFD2FF11DE35AFF4F1B
:1002E000F0829FB7F8940B8FEA89FB898081806246
:1002F000CFCFCF93DF93EC01888D8823B9F0AA8903
:10030000BB89E889F9898C9185FD03C0808186FDD0
:100310000DC00FB607FCF7CF8C9185FFF2CF80811F
:1003200085FFEDCFCE010E940A01E9CFDF91CF9189
:10033000089590E0FC01E255FF4F2491FC01E65640
:10034000FF4F3491FC01EA57FF4FE491EE23C9F0CF
:10035000222339F0233001F1A8F4213019F12230A1
:1003600029F1F0E0EE0FFF1FE458FF4FA591B49183
:100370008FB7F894EC91611126C030953E233C93E1
:100380008FBF08952730A9F02830C9F0243049F7ED
:10039000809180008F7D03C0809180008F77809353
:1003A0008000DFCF84B58F7784BDDBCF84B58F7DB0
:1003B000FBCF8091B0008F778093B000D2CF809137
:1003C000B0008F7DF9CF3E2BDACFCF93DF9390E053
:1003D000FC01E656FF4F24918A579F4FFC01849100
:1003E0008823D1F090E0880F991FFC01EE58FF4F51
:1003F000A591B491FC01E458FF4FC591D4916111CE
:100400000EC09FB7F8948C91E22FE0958E238C93C9
:100410002881E223E8839FBFDF91CF9108958FB7B2
:10042000F894EC91E22BEC938FBFF6CF3FB7F894A2
:100430008091350190913601A0913701B09138013A
:1004400026B5A89B05C02F3F19F00196A11DB11D2F
:100450003FBFBA2FA92F982F8827BC01CD01620F6B
:10046000711D811D911D42E0660F771F881F991F26
:100470004A95D1F708958F929F92AF92BF92CF92F3
:10048000DF92EF92FF924B015C010E9416026B011A
:100490007C010E9416026C197D098E099F09683E35
:1004A000734081059105A8F321E0821A9108A10803
:1004B000B10888EEC80E83E0D81EE11CF11C81143F
:1004C0009104A104B10429F7FF90EF90DF90CF9041
:1004D000BF90AF909F908F90089561E084E00E945C
:1004E000990161E083E00E9499016CE271E080E093
:1004F00090E00E943B0260E084E00E94990160E08D
:1005000083E00E9499016CE271E080E090E00C943D
:100510003B02FC0101900020E9F73197AF01481B35
:10052000590BBC018DE391E00C948C008F929F924B
:10053000AF92BF920F931F93CF93DF93CDB7DEB7E8
:10054000A1970FB6F894DEBF0FBECDBF19A24230FF
:1005500008F44AE08E010F5D1F4F842E912CB12CC0
:10056000A12CA50194010E94B307E62FB901CA018D
:10057000EA30F4F4E05DD801EE938D01232B242BB7
:10058000252B79F790E080E0109719F0CD010E94BB
:100590008902A1960FB6F894DEBF0FBECDBFDF91E2
:1005A000CF911F910F91BF90AF909F908F90089522
:1005B000E95CE1CF8F929F92AF92BF92CF92DF9290
:1005C000EF92FF920F931F9360E08AE00E949901DF
:1005D00083E090E00197F1F761E08AE00E949901E1
:1005E00083E290E00197F1F760E08AE00E949901D0
:1005F000E3EAF0E06491EFE8F0E0E491F0E0EE0F80
:10060000FF1FE859FF4F8591949100E412E42FE019
:1006100030E0462F0E949004611571058105910517
:1006200029F06F5F7F4F8F4F9F4F9F700E948C0606
:1006300026E933E44BE05DE30E94410720E030E02F
:1006400040E05FE30E9441076093390170933A01F3
:1006500080933B0190933C0182E191E00E948902EA
:10066000C0903901D0903A01E0903B01F0903C01FC
:10067000A7019601C701B6010E94AE078823E1F0E9
:100680008DE191E00E94890289E291E00E94890255
:100690008CE291E00E9489026AE070E080E090E0E4
:1006A0001F910F91FF90EF90DF90CF90BF90AF9090
:1006B0009F908F900C943B0246015701E894B7F845
:1006C0002FEF3FEF4FE75FE7C501B4010E94AE0790
:1006D00081110DC02FEF3FEF4FE75FE7C501B40178
:1006E0000E94560618161CF481E291E0CBCF2FEF42
:1006F0003FEF4FE75FE4C701B6010E943C071816C1
:100700001CF485E291E0BECF2FEF3FEF4FE75FECA7
:10071000C701B6010E94560687FDF3CF20E030E006
:10072000A901C701B6010E94560687FF09C06DE204
:100730008DE391E00E942C01F7FAF094F7F8F09421
:100740002AE037ED43EA5BE3C701B6010E94EA0500
:100750004B015C010E945B066B017C010E948A06D2
:100760009B01AC01C501B4010E94E9054B015C018C
:100770004AE0C701B6010E9496026EE28DE391E065
:100780000E942C0120E030E040E251E4C501B401B8
:100790000E9441074B015C010E945B066B01F12C3A
:1007A000E12C4AE0C701B6010E949602C701B601DA
:1007B0000E948A069B01AC01C501B4010E94E905B3
:1007C00020E030E040E251E40E9441070E945B06D5
:1007D00090E080E04AE00E94960256CF1F920F926E
:1007E0000FB60F9211242F933F934F935F936F9304
:1007F0007F938F939F93AF93BF93EF93FF938DE37B
:1008000091E00E940A01FF91EF91BF91AF919F91FA
:100810008F917F916F915F914F913F912F910F90A9
:100820000FBE0F901F9018951F920F920FB60F9248
:1008300011242F938F939F93EF93FF93E0914D019A
:10084000F0914E018081E0915301F091540182FDBD
:100850001BC09081809156018F5F8F73209157014B
:10086000821741F0E0915601F0E0E35CFE4F958F76
:1008700080935601FF91EF919F918F912F910F904F
:100880000FBE0F901F9018958081F4CF1F920F928A
:100890000FB60F9211242F933F938F939F93AF9393
:1008A000BF938091310190913201A0913301B091B9
:1008B00034013091300123E0230F2D3758F5019694
:1008C000A11DB11D2093300180933101909332011D
:1008D000A0933301B093340180913501909136019A
:1008E000A0913701B09138010196A11DB11D8093EF
:1008F000350190933601A0933701B0933801BF9131
:10090000AF919F918F913F912F910F900FBE0F90BC
:100910001F90189526E8230F0296A11DB11DD2CF76
:10092000CF92DF92EF92FF920F931F93E82FF92F50
:1009300005C0015011092109310961F19081962307
:100940009417B9F305C0015011092109310911F1BA
:10095000908196239413F7CFC12CD12CE12CF12C4C
:100960000AC08FEFC81AD80AE80AF80A0C151D0544
:100970002E053F0579F080818623841791F36C2D35
:100980007D2D8E2D9F2D1F910F91FF90EF90DF9069
:10099000CF90089560E070E080E090E01F910F91AB
:1009A000FF90EF90DF90CF900895789484B58260A7
:1009B00084BD84B5816084BD85B5826085BD85B503
:1009C000816085BD80916E00816080936E00109281
:1009D00081008091810082608093810080918100FC
:1009E000816080938100809180008160809380008D
:1009F0008091B10084608093B1008091B0008160EB
:100A00008093B00080917A00846080937A00809116
:100A10007A00826080937A0080917A00816080936E
:100A20007A0080917A00806880937A001092C100E9
:100A300061E08AE00E94E50160E089E00E94E50152
:100A400061E082E00E94E50161E083E00E94E5014F
:100A500061E084E00E94E501E0914D01F0914E01DA
:100A600082E08083E0914901F0914A011082E09197
:100A70004B01F0914C018FEC808310925501E09175
:100A80005101F091520186E08083E0914F01F09195
:100A90005001808180618083E0914F01F09150018D
:100AA000808188608083E0914F01F09150018081C6
:100AB00080688083E0914F01F091500180818F7DAB
:100AC0008083C0E0D0E00E94DA02C0903901D0906B
:100AD0003A01E0903B01F0903C0120E030E048E436
:100AE00053E4C701B6010E943C0718165CF40E944B
:100AF0006D02209741F30E94F600882321F30E94A3
:100B00000000E1CF20E030E044E353E4C701B60148
:100B10000E943C0718166CF720E030E040EF51E4EB
:100B20006091390170913A0180913B0190913C01B3
:100B30000E943C0787FD1BC061E082E00E94990192
:100B40000E94DA0220E030E048E453E46091390189
:100B500070913A0180913B0190913C010E945606B0
:100B600087FFDACF0E946D020E94DA02D5CF60E0E3
:100B700082E00E949901BDCFEDE3F1E01382128281
:100B800088EE93E0A0E0B0E084839583A683B783EA
:100B900084E091E09183808385EC90E09587848761
:100BA00084EC90E09787868780EC90E0918B808B37
:100BB00081EC90E0938B828B82EC90E0958B848B20
:100BC00086EC90E0978B868B118E128E138E148E8E
:100BD00008955058BB27AA270E9401060C940207CB
:100BE0000E94F40638F00E94FB0620F039F49F3F83
:100BF00019F426F40C94F1060EF4E095E7FB0C943E
:100C0000EB06E92F0E94130758F3BA176207730720
:100C10008407950720F079F4A6F50C9435070EF4B7
:100C2000E0950B2EBA2FA02D0B01B90190010C01FC
:100C3000CA01A0011124FF27591B99F0593F50F414
:100C4000503E68F11A16F040A22F232F342F44276C
:100C5000585FF3CF469537952795A795F040539564
:100C6000C9F77EF41F16BA0B620B730B840BBAF034
:100C70009150A1F0FF0FBB1F661F771F881FC2F79F
:100C80000EC0BA0F621F731F841F48F487957795B3
:100C90006795B795F7959E3F08F0B0CF9395880F6D
:100CA00008F09927EE0F9795879508950E94C7063B
:100CB00008F481E008950E941B0788F09F5798F080
:100CC000B92F9927B751B0F0E1F0660F771F881F51
:100CD000991F1AF0BA95C9F714C0B13091F00E946B
:100CE0003507B1E008950C943507672F782F8827D2
:100CF000B85F39F0B93FCCF3869577956795B39592
:100D0000D9F73EF490958095709561957F4F8F4F00
:100D10009F4F0895E89409C097FB3EF49095809505
:100D2000709561957F4F8F4F9F4F9923A9F0F92FB1
:100D300096E9BB279395F695879577956795B7952F
:100D4000F111F8CFFAF4BB0F11F460FF1BC06F5F15
:100D50007F4F8F4F9F4F16C0882311F096E911C027
:100D6000772321F09EE8872F762F05C0662371F048
:100D700096E8862F70E060E02AF09A95660F771F5C
:100D8000881FDAF7880F9695879597F90895990F38
:100D90000008550FAA0BE0E8FEEF16161706E80745
:100DA000F907C0F012161306E407F50798F0621B66
:100DB000730B840B950B39F40A2661F0232B242B3B
:100DC000252B21F408950A2609F4A140A6958FEF5A
:100DD000811D811D089597F99F6780E870E060E0AC
:100DE00008959FEF80EC089500240A9416161706C4
:100DF00018060906089500240A941216130614060C
:100E000005060895092E0394000C11F4882352F06E
:100E1000BB0F40F4BF2B11F460FF04C06F5F7F4F26
:100E20008F4F9F4F089557FD9058440F551F59F00D
:100E30005F3F71F04795880F97FB991F61F09F3FC7
:100E400079F087950895121613061406551FF2CFF0
:100E50004695F1DF08C0161617061806991FF1CF40
:100E600086957105610508940895E894BB27662767
:100E70007727CB0197F908950E94C70608F48FEFF2
:100E800008950E9454070C9402070E94F40638F05B
:100E90000E94FB0620F0952311F00C94EB060C94B5
:100EA000F10611240C9436070E94130770F3959FE6
:100EB000C1F3950F50E0551F629FF001729FBB2751
:100EC000F00DB11D639FAA27F00DB11DAA1F649FED
:100ED0006627B00DA11D661F829F2227B00DA11DA0
:100EE000621F739FB00DA11D621F839FA00D611D26
:100EF000221F749F3327A00D611D231F849F600D47
:100F0000211D822F762F6A2F11249F5750409AF06F
:100F1000F1F088234AF0EE0FFF1FBB1F661F771FFB
:100F2000881F91505040A9F79E3F510580F00C94C6
:100F3000EB060C9436075F3FE4F3983ED4F38695B6
:100F400077956795B795F795E7959F5FC1F7FE2B66
:100F5000880F911D9695879597F908950E94C70669
:100F6000880B990B0895A1E21A2EAA1BBB1BFD0149
:100F70000DC0AA1FBB1FEE1FFF1FA217B307E40778
:100F8000F50720F0A21BB30BE40BF50B661F771FD0
:100F9000881F991F1A9469F76095709580959095B0
:100FA0009B01AC01BD01CF010895EE0FFF1F05901D
:0A0FB000F491E02D0994F894FFCFAE
:100FBA00000000002C018C00B9007901EA00C80089
:100FCA00DC0044697374616E63653A20006E616E79
:100FDA0000696E66006F766600636D000D0A000098
:00000001FF
