:100000000C945D000C9485000C9485000C94850084
:100010000C9485000C9485000C9485000C9485004C
:100020000C9485000C9485000C9485000C9485003C
:100030000C9485000C9485000C9485000C9485002C
:100040000C9436060C9485000C94A6060C9480063D
:100050000C9485000C9485000C9485000C9485000C
:100060000C94D8060C9485000000000024002700A2
:100070002A0000000000250028002B0004040404CE
:100080000404040402020202020203030303030342
:10009000010204081020408001020408102001021F
:1000A00004081020000000080002010000030407FB
:1000B0000000000000000000F70711241FBECFEF72
:1000C000D8E0DEBFCDBF11E0A0E0B1E0E0EAF9E1A9
:1000D00002C005900D92A637B107D9F722E0A6E736
:1000E000B1E001C01D92A23FB207E1F710E0CDE5FB
:1000F000D0E004C02197FE010E94C80CCC35D10786
:10010000C9F70E943F080C94CE0C0C94000090E0BC
:10011000FC01EC55FF4F2491FC01E057FF4F349157
:10012000FC01E458FF4FE491EE23C9F0222339F09B
:10013000233001F1A8F4213019F1223029F1F0E047
:10014000EE0FFF1FEE58FF4FA591B4918FB7F894B3
:10015000EC91611126C030953E233C938FBF0895EA
:100160002730A9F02830C9F0243049F78091800069
:100170008F7D03C0809180008F7780938000DFCFD8
:1001800084B58F7784BDDBCF84B58F7DFBCF809125
:10019000B0008F778093B000D2CF8091B0008F7D78
:1001A000F9CF3E2BDACFCF93DF9390E0FC01E057FD
:1001B000FF4F249184589F4FFC0184918823D1F0F4
:1001C00090E0880F991FFC01E859FF4FA591B49169
:1001D000FC01EE58FF4FC591D49161110EC09FB73D
:1001E000F8948C91E22FE0958E238C932881E22362
:1001F000E8839FBFDF91CF9108958FB7F894EC917A
:10020000E22BEC938FBFF6CF3FB7F8948091390281
:1002100090913A02A0913B02B0913C0226B5A89B76
:1002200005C02F3F19F00196A11DB11D3FBFBA2F88
:10023000A92F982F8827BC01CD01620F711D811D48
:10024000911D42E0660F771F881F991F4A95D1F7CD
:1002500008958F929F92AF92BF92CF92DF92EF92CA
:10026000FF924B015C010E9404016B017C010E9422
:1002700004016C197D098E099F09683E7340810550
:100280009105A8F321E0821A9108A108B10888EE2F
:10029000C80E83E0D81EE11CF11C81149104A10456
:1002A000B10429F7FF90EF90DF90CF90BF90AF900F
:1002B0009F908F90089508950895AF92BF92CF9226
:1002C000DF92EF92FF920F931F93CF93DF936C0116
:1002D0007B018B01040F151FEB015E01AE18BF08F7
:1002E000C017D10759F06991D601ED91FC910190A9
:1002F000F081E02DC6010995892B79F7C501DF91C1
:10030000CF911F910F91FF90EF90DF90CF90BF9012
:10031000AF900895FC01538D448D252F30E0842F3C
:1003200090E0821B930B541710F0CF96089501971D
:100330000895FC01918D828D981761F0A28DAE0F0A
:10034000BF2FB11D5D968C91928D9F5F9F73928F91
:1003500090E008958FEF9FEF0895FC01918D828DBD
:10036000981731F0828DE80FF11D858D90E008958A
:100370008FEF9FEF0895FC01918D228D892F90E0E2
:10038000805C9F4F821B91098F73992708958DE39D
:1003900092E00E94BB0121E0892B09F420E0822F2A
:1003A000089580E090E0892B29F00E94C701811117
:1003B0000C9400000895FC01A48DA80FB92FB11D65
:1003C000A35ABF4F2C91848D90E001968F7399278B
:1003D000848FA689B7892C93A089B1898C91837069
:1003E00080648C93938D848D981306C00288F38962
:1003F000E02D80818F7D80830895EF92FF920F938F
:100400001F93CF93DF93EC0181E0888F9B8D8C8DC0
:1004100098131AC0E889F989808185FF15C09FB7B4
:10042000F894EE89FF896083E889F9898081837077
:10043000806480839FBF81E090E0DF91CF911F9126
:100440000F91FF90EF900895F62E0B8D10E00F5F47
:100450001F4F0F731127E02E8C8D8E110CC00FB61D
:1004600007FCFACFE889F989808185FFF5CFCE01B5
:100470000E94DB01F1CFEB8DEC0FFD2FF11DE35A54
:10048000FF4FF0829FB7F8940B8FEA89FB89808138
:100490008062CFCFCF93DF93EC01888D8823B9F0B2
:1004A000AA89BB89E889F9898C9185FD03C080817F
:1004B00086FD0DC00FB607FCF7CF8C9185FFF2CFFC
:1004C000808185FFEDCFCE010E94DB01E9CFDF9176
:1004D000CF9108952091DE01260F3327331F21325B
:1004E0003105ECF420910202FC0190E080E0243020
:1004F00069F082E00895A091DE012191AC0142549F
:100500005E4FA40FB52FB11D2C930196861798F35B
:100510008091DE01680F6093DE0180E0089581E044
:1005200008951092020281E0809304021092030267
:1005300061E082E10E94870061E083E10E94870020
:10054000E9EBF0E080818E7F808380818D7F8083E6
:1005500088E48093B80085E48093BC000895CF932D
:10056000DF9391E09093BD018823B9F0C091B8006A
:10057000D091BA008091BC008A7B8093BC0060E07F
:1005800082E10E94870060E083E10E9487000E9470
:100590009102D093BA00C093B800DF91CF91089533
:1005A0000895E0912F0280912E02E81730F4F0E0D8
:1005B000E856FE4F808190E008958FEF9FEF0895F9
:1005C00090912F0280912E022FEF3FEF981748F461
:1005D000E92FF0E0E856FE4F208130E09F5F9093D6
:1005E0002F02C901089580912E0290912F02891B3C
:1005F000990B0895CF92DF92EF92FF920F931F9382
:10060000CF93DF937C01CB018A01209197012223B4
:1006100089F0EB016B01C40ED51ECC15DD0569F028
:100620006991D701ED91FC910190F081E02DC70116
:100630000995F3CF642F0E946A02C801DF91CF9120
:100640001F910F91FF90EF90DF90CF900895CF937F
:10065000DF931F92CDB7DEB76983209197012223E4
:10066000F9F020912C02203258F021E030E0FC011A
:100670003383228390E080E00F90DF91CF91089543
:1006800080912D02E82FF0E0E958FE4F9981908388
:100690008F5F80932D0280932C0281E090E0ECCF5D
:1006A00061E0CE0101960E946A02F7CFCF92DF92FD
:1006B000EF92FF920F931F93CF93DF93FC01C481BE
:1006C00021E020939701C093760110922D021092A1
:1006D0002C028385682B8AED92E00E942703D0913B
:1006E0002C02D13208F092C00E9404016B017C01FF
:1006F00080910202811165C082E08093020281E054
:10070000809304028FEF8093010210922602D0930F
:100710002502A7E7B1E0E5E0F2E080E0D81385C06C
:100720001092270280912702CC0FC82BC09327027A
:1007300080910302813009F07CC0109203020E9474
:1007400004016B017C01809127028093BB008091A2
:10075000B9019091BA01A091BB01B091BC01892B64
:100760008A2B8B2B99F00E9404010091B901109102
:10077000BA012091BB013091BC016C197D098E0931
:100780009F090617170728073907E0F18091BC0079
:1007900083FDD9CF85EC8093BC000E9404016B01DE
:1007A0007C0180910202823009F445C080910102EF
:1007B0008F3F61F180910102803241F1809101020D
:1007C00025C08091B9019091BA01A091BB01B0916F
:1007D000BC01892B8A2B8B2B09F48ACF0E94040140
:1007E0000091B9011091BA012091BB013091BC0177
:1007F0006C197D098E099F09061717072807390705
:1008000008F076CF8091B8010E94AF0210922D02BD
:1008100010922C0210929701DF91CF911F910F91AE
:10082000FF90EF90DF90CF9008959D9191938F5F0F
:1008300075CF85EEB0CF8091B9019091BA01A091AA
:10084000BB01B091BC01892B8A2B8B2B09F4A9CF5A
:100850000E9404010091B9011091BA012091BB01DD
:100860003091BC016C197D098E099F090617170785
:100870002807390708F095CFC5CF089590E080E0AC
:100880000895FB0101900020E9F73197AF01461B65
:10089000570BDC01ED91FC910280F381E02D09946E
:1008A0008F929F92AF92BF92EF92FF920F931F93FE
:1008B000CF93DF93CDB7DEB7A1970FB6F894DEBF25
:1008C0000FBECDBF7C01FA01CB0119A2223008F482
:1008D0002AE08E010F5D1F4F822E912CB12CA12C8E
:1008E000BF01A50194010E94A60CF901CA016A305A
:1008F0000CF5605DD8016E938D01232B242B252BE5
:1009000079F790E080E0109721F0BD01C7010E94C7
:100910004104A1960FB6F894DEBF0FBECDBFDF91A4
:10092000CF911F910F91FF90EF90BF90AF909F904C
:100930008F900895695CDECF2F923F924F925F9225
:100940006F927F928F929F92AF92BF92CF92DF92DF
:10095000EF92FF921F93CF93DF93EC016A017B012B
:10096000722EAB019601CB01B6010E94A10C68E387
:1009700071E0811126C046015701E894B7F82FEFC6
:100980003FEF4FE75FE7C501B4010E94A10C811161
:100990000CC02FEF3FEF4FE75FE7C501B4010E94A6
:1009A000D70A6CE371E0181664F02FEF3FEF4FE7C2
:1009B0005FE4C701B6010E942F0C1816B4F460E47E
:1009C00071E0CE01DF91CF911F91FF90EF90DF900A
:1009D000CF90BF90AF909F908F907F906F905F90DF
:1009E0004F903F902F900C9441042FEF3FEF4FE733
:1009F0005FECC701B6010E94D70A87FDE0CF20E077
:100A000030E0A901C701B6010E94D70A312C212C80
:100A100087FF0DC0E881F9810190F081E02D6DE242
:100A2000CE0109951C01F7FAF094F7F8F09410E064
:100A300060E070E080E09FE3711641F020E030E07C
:100A400040E251E40E94DC0A1F5FF6CFA701960145
:100A50000E946B0A2B013C010E944E0B4B015C0172
:100A60002AE0BC01A401CE010E9450047C01E20CEA
:100A7000F31C1123E1F1C501B4010E947D0B9B0120
:100A8000AC01C301B2010E946A0A4B015C01E8811A
:100A9000F9810190F081E02D6EE2CE010995E80E1A
:100AA000F91E115020F120E030E040E251E4C50190
:100AB000B4010E94340C2B013C010E944E0B4B01EF
:100AC000B12CA12C2AE0B501A401CE010E94500452
:100AD000E80EF91EC501B4010E947D0B9B01AC011B
:100AE000C301B2010E946A0A4B015C01DACFC7015F
:100AF000DF91CF911F91FF90EF90DF90CF90BF904B
:100B0000AF909F908F907F906F905F904F903F90AD
:100B10002F9008950F931F93CF938C01C62F0E949F
:100B200056036C2F6460C8010E9456036C2F6B7FC4
:100B3000C8010E94560383EC90E00197F1F7CF9132
:100B40001F910F9108950F931F93CF93DF938C0103
:100B5000D62FC42F607F642B0E948A0580E1D89F26
:100B6000B00111246C2BC801DF91CF911F910F911F
:100B70000C948A0540E061E086EE92E00E94A305B5
:100B80008BE39FE10197F1F70895CF93DF93CDB702
:100B9000DEB728970FB6F894DEBF0FBECDBF98E042
:100BA000E0E0F1E0DE01119601900D929A95E1F7F7
:100BB0009091EE02961708F46FEF262F30E0220F87
:100BC000331F41E050E04C0F5D1F240F351FF9012A
:100BD0006081680F606840E086EE92E028960FB66C
:100BE000F894DEBF0FBECDBFDF91CF910C94A3056B
:100BF00041E00E94A30581E090E0089585ED809397
:100C0000BC008091B9019091BA01A091BB01B09153
:100C1000BC010796A11DB11D23E0B695A795979538
:100C200087952A95D1F72091BC0024FD03C010922E
:100C3000020208954091B9015091BA016091BB013F
:100C40007091BC01452B462B472B69F30097A105FA
:100C5000B10541F02AE22A95F1F700C00197A109F8
:100C6000B109E1CF8091B8010C94AF021F920F92AD
:100C70000FB60F9211242F933F938F939F93AF93AF
:100C8000BF938091350290913602A0913702B091C6
:100C900038023091340223E0230F2D3758F50196A6
:100CA000A11DB11D2093340280933502909336022A
:100CB000A0933702B09338028091390290913A02A2
:100CC000A0913B02B0913C020196A11DB11D809301
:100CD000390290933A02A0933B02B0933C02BF9139
:100CE000AF919F918F913F912F910F900FBE0F90D9
:100CF0001F90189526E8230F0296A11DB11DD2CF93
:100D00001F920F920FB60F9211242F933F934F9380
:100D10005F936F937F938F939F93AF93BF93EF9363
:100D2000FF938DE392E00E94DB01FF91EF91BF9171
:100D3000AF919F918F917F916F915F914F913F9173
:100D40002F910F900FBE0F901F9018951F920F922A
:100D50000FB60F9211242F938F939F93EF93FF93CE
:100D6000E0914D02F0914E028081E0915302F091AA
:100D7000540282FD1BC09081809156028F5F8F7359
:100D800020915702821741F0E0915602F0E0E35CB7
:100D9000FD4F958F80935602FF91EF919F918F9118
:100DA0002F910F900FBE0F901F9018958081F4CF58
:100DB0001F920F920FB60F9211242F933F934F93D0
:100DC0005F936F937F938F939F93AF93BF93EF93B3
:100DD000FF938091B900887F803609F44AC0F0F50E
:100DE000883209F4A7C018F5803109F49BC0B8F423
:100DF000882309F4F9C0883009F494C0FF91EF9179
:100E0000BF91AF919F918F917F916F915F914F9122
:100E10003F912F910F900FBE0F901F901895883122
:100E200009F488C0803251F78093010214C08034E5
:100E300009F49DC040F48033B9F38833F9F6809308
:100E4000010285ECB0C0803509F485C0883509F40D
:100E500096C0883499F60E94FE05D0CF883909F4EF
:100E60008CC038F5883729F050F4883611F0803777
:100E700029F683E0809302021092000257C088385E
:100E800009F47BC0803919F0803809F0B7CF809120
:100E90000002803208F071C0E091000281E08E0F04
:100EA000809300028091BB00F0E0E052FE4F80830F
:100EB0003DC0803B39F0E0F4803A09F479C0883ACB
:100EC00009F09CCF84E0809302021092DF0110921F
:100ED000DE01E0912A02F0912B0209958091DE015A
:100EE00081110FC081E08093DE011092BE0109C024
:100EF000803C09F4A6CF883C09F4A3CF883B09F0D5
:100F00007DCFE091DF0181E08E0F8093DF01F0E083
:100F1000E254FE4F80818093BB009091DF0180916D
:100F2000DE0129C0809127028093BB0085EC80936D
:100F3000BC0064CF9091260280912502981758F545
:100F4000E091260281E08E0F80932602F0E0EB5FB5
:100F5000FD4F8081E9CFE091260281E08E0F8093E2
:100F600026028091BB00F0E0EB5FFD4F8083909103
:100F70002602809125029817C8F285E8D8CFE09123
:100F8000260281E08E0F809326028091BB00F0E064
:100F9000EB5FFD4F80838091040281115CCF81E083
:100FA0008093030284EA8093BC001092020226CF51
:100FB00085EC8093BC001092020280910002803286
:100FC00030F4E0910002F0E0E052FE4F10826091B8
:100FD000000270E0E0912802F091290280EE91E099
:100FE0000995109200020ACF1092010234CFEDE36E
:100FF000F2E01382128288EE93E0A0E0B0E08483F6
:101000009583A683B7832CE031E03183208325ECE0
:1010100030E03587248724EC30E03787268720ECC2
:1010200030E0318B208B21EC30E0338B228B22ECB3
:1010300030E0358B248B26EC30E0378B268B118EFD
:10104000128E138E148EEAEDF2E0138212828483E4
:101050009583A683B7838EE191E091838083E6EE4A
:10106000F2E01382128280E391E09183808380E238
:10107000848380E1818782E0828713860895789453
:1010800084B5826084BD84B5816084BD85B582608D
:1010900085BD85B5816085BD80916E00816080933E
:1010A0006E001092810080918100826080938100A7
:1010B00080918100816080938100809180008160B7
:1010C000809380008091B10084608093B100809112
:1010D000B00081608093B00080917A00846080933A
:1010E0007A0080917A00826080937A0080917A0001
:1010F000816080937A0080917A00806880937A0082
:101100001092C10060E08EE00E94D30061E083E0B5
:101110000E94D30061E084E00E94D30061E08CE093
:101120000E94D300E0914D02F0914E0282E0808354
:10113000E0914902F0914A021082E0914B02F09155
:101140004C028FEC808310925502E0915102F09195
:10115000520286E08083E0914F02F091500280813C
:1011600080618083E0914F02F0915002808188601D
:101170008083E0914F02F0915002808180688083EB
:10118000E0914F02F091500280818F7D808364E472
:1011900071E08DE392E00E94410461E571E08DE32E
:1011A00092E00E94410410922F0210922E0210929F
:1011B0002D0210922C020E9491028BE591E09093F7
:1011C0002B0280932A028CE591E090932902809370
:1011D00028021092EB028091F002823018F098E021
:1011E0009093EB028093EE0262E370E080E090E087
:1011F0000E9429016091F10286EE92E00E9456035E
:1012000068EE73E080E090E00E94290160E386EEE2
:1012100092E00E948A05CBE4D6E4CE010197F1F773
:1012200060E386EE92E00E948A052197F1F760E381
:1012300086EE92E00E948A0583E592E00197F1F73D
:1012400060E286EE92E00E948A056091EB026062A5
:1012500040E086EE92E00E94A30584E08093EC02D9
:1012600040E06CE086EE92E00E94A3050E94BA0581
:1012700082E08093ED0240E066E086EE92E00E941C
:10128000A30540E062E086EE92E00E94A3058BE3B6
:101290009FE10197F1F70E94BA0588E08093F1027F
:1012A00060E086EE92E00E94560360E080E00E94DB
:1012B000C50564E571E086EE92E00E94410468EBAA
:1012C0007BE080E090E00E9429010E94BA0510E4D2
:1012D000C0E0D0E010937C0080917A00806480931D
:1012E0007A0080917A0086FDFCCF60917800709141
:1012F0007900072E000C880B990B0E947F0B20E0D1
:1013000030E040EA50E40E94340C20E030E040E855
:101310005AE30E94340C2CE83EE24AEB5DE30E9463
:10132000DC0A6B017C012CEE31E548EB5DE30E94A9
:10133000D70A87FD9BC0C0923002D0923102E09262
:101340003202F092330261E671E08DE392E00E9496
:10135000410440913002509131026091320270910B
:10136000330222E08DE392E00E949C0461E571E08B
:101370008DE392E00E94410461E070E080E090E043
:101380000E94290160E086E00E94C5056BE671E0DD
:1013900086EE92E00E94410461E080E00E94C50573
:1013A0006FE671E086EE92E00E94410461E085E024
:1013B0000E94C50540913002509131026091320285
:1013C0007091330224E086EE92E00E949C0461E07A
:1013D00080E10E94C50564E771E086EE92E00E941C
:1013E00041046AE070E080E090E00E942901C09032
:1013F0003002D0903102E0903202F09033022AE9BC
:1014000039E949E251E4C701B6010E94D70A87FFD2
:1014100036C060E083E00E94870061E084E00E94C3
:10142000870064EF71E080E090E00E94290160E0B5
:1014300084E00E94870064EF71E080E090E00E9409
:10144000290161E08CE00E94870064EF71E080E098
:1014500090E00E942901209709F43CCF0E94C70127
:10146000882309F437CF0E94000034CF1092300255
:1014700010923102109232021092330264CF20E0B7
:1014800030E048E351E4C701B6010E94D70A60E0AA
:1014900087FF14C084E00E94870060E08CE00E9417
:1014A000870061E083E00E94870064EF71E080E0E4
:1014B00090E00E94290160E083E0C5CF83E00E94B4
:1014C000870060E084E00E94870060E08CE00E947A
:1014D0008700C1CF5058BB27AA270E94820A0C94CC
:1014E000F50B0E94E70B38F00E94EE0B20F039F468
:1014F0009F3F19F426F40C94E40B0EF4E095E7FBFF
:101500000C94DE0BE92F0E94060C58F3BA17620701
:1015100073078407950720F079F4A6F50C94280C3E
:101520000EF4E0950B2EBA2FA02D0B01B9019001FE
:101530000C01CA01A0011124FF27591B99F0593F42
:1015400050F4503E68F11A16F040A22F232F342F8A
:101550004427585FF3CF469537952795A795F040D8
:101560005395C9F77EF41F16BA0B620B730B840BED
:10157000BAF09150A1F0FF0FBB1F661F771F881FA5
:10158000C2F70EC0BA0F621F731F841F48F48795FD
:1015900077956795B795F7959E3F08F0B0CF9395EF
:1015A000880F08F09927EE0F9795879508950E9468
:1015B000BA0B08F481E008950E94F00A0C94F50B30
:1015C0000E94EE0B58F00E94E70B40F029F45F3FB9
:1015D00029F00C94DE0B51110C94290C0C94E40BA3
:1015E0000E94060C68F39923B1F3552391F3951BE0
:1015F000550BBB27AA2762177307840738F09F5F34
:101600005F4F220F331F441FAA1FA9F335D00E2EA0
:101610003AF0E0E832D091505040E695001CCAF70D
:101620002BD0FE2F29D0660F771F881FBB1F2617D0
:1016300037074807AB07B0E809F0BB0B802DBF01A7
:10164000FF2793585F4F3AF09E3F510578F00C9476
:10165000DE0B0C94290C5F3FE4F3983ED4F386959F
:1016600077956795B795F7959F5FC9F7880F911D97
:101670009695879597F90895E1E0660F771F881F83
:10168000BB1F621773078407BA0720F0621B730B36
:10169000840BBA0BEE1F88F7E09508950E940E0C9C
:1016A00088F09F5798F0B92F9927B751B0F0E1F023
:1016B000660F771F881F991F1AF0BA95C9F714C0D3
:1016C000B13091F00E94280CB1E008950C94280CE0
:1016D000672F782F8827B85F39F0B93FCCF386950C
:1016E00077956795B395D9F73EF490958095709569
:1016F00061957F4F8F4F9F4F0895E89409C097FBE6
:101700003EF490958095709561957F4F8F4F9F4FD8
:101710009923A9F0F92F96E9BB279395F69587951C
:1017200077956795B795F111F8CFFAF4BB0F11F4DF
:1017300060FF1BC06F5F7F4F8F4F9F4F16C0882386
:1017400011F096E911C0772321F09EE8872F762FBC
:1017500005C0662371F096E8862F70E060E02AF0FD
:101760009A95660F771F881FDAF7880F96958795E9
:1017700097F90895990F0008550FAA0BE0E8FEEFBE
:1017800016161706E807F907C0F012161306E40745
:10179000F50798F0621B730B840B950B39F40A263E
:1017A00061F0232B242B252B21F408950A2609F41C
:1017B000A140A6958FEF811D811D089597F99F6720
:1017C00080E870E060E008959FEF80EC08950024C9
:1017D0000A941616170618060906089500240A9496
:1017E00012161306140605060895092E0394000C1C
:1017F00011F4882352F0BB0F40F4BF2B11F460FFAB
:1018000004C06F5F7F4F8F4F9F4F089557FD9058D3
:10181000440F551F59F05F3F71F04795880F97FBB4
:10182000991F61F09F3F79F087950895121613066E
:101830001406551FF2CF4695F1DF08C0161617069D
:101840001806991FF1CF86957105610508940895D2
:10185000E894BB2766277727CB0197F908950E9464
:10186000BA0B08F48FEF08950E94470C0C94F50B07
:101870000E94E70B38F00E94EE0B20F0952311F048
:101880000C94DE0B0C94E40B11240C94290C0E9494
:10189000060C70F3959FC1F3950F50E0551F629FA2
:1018A000F001729FBB27F00DB11D639FAA27F00DB9
:1018B000B11DAA1F649F6627B00DA11D661F829FE0
:1018C0002227B00DA11D621F739FB00DA11D621FC5
:1018D000839FA00D611D221F749F3327A00D611DE2
:1018E000231F849F600D211D822F762F6A2F1124C4
:1018F0009F5750409AF0F1F088234AF0EE0FFF1FF7
:10190000BB1F661F771F881F91505040A9F79E3F4D
:10191000510580F00C94DE0B0C94290C5F3FE4F32E
:10192000983ED4F3869577956795B795F795E795A3
:101930009F5FC1F7FE2B880F911D9695879597F9AC
:1019400008950E94BA0B880B990B0895A1E21A2EF4
:10195000AA1BBB1BFD010DC0AA1FBB1FEE1FFF1F53
:10196000A217B307E407F50720F0A21BB30BE40BA3
:10197000F50B661F771F881F991F1A9469F76095EA
:101980007095809590959B01AC01BD01CF010895A4
:10199000EE0FFF1F0590F491E02D0994F894FFCF0E
:1019A000000040001400540000000000FD015D0133
:1019B0008A014A02BB019901AD0100000000270322
:1019C000FA023E04D002F302E002D102000000005D
:1019D000F8055D013E043D046E616E00696E6600AF
:1019E0006F766600444320766F6C746D6574657223
:1019F000000D0A0057656C636F6D65206E65676149
:101A000000496E70757420563D200044564D0056B6
:061A1000696E3D00560066
:00000001FF
