:020000040000FA
:100000000C945D000C9485000C9485000C94850084
:100010000C9485000C9485000C9485000C9485004C
:100020000C9485000C9485000C9485000C9485003C
:100030000C9485000C9485000C9485000C9485002C
:100040000C942B060C9485000C949B060C9475065E
:100050000C9485000C9485000C9485000C9485000C
:100060000C94CD060C9485000000000024002700AD
:100070002A0000000000250028002B0004040404CE
:100080000404040402020202020203030303030342
:10009000010204081020408001020408102001021F
:1000A00004081020000000080002010000030407FB
:1000B0000000000000000000EC0711241FBECFEF7D
:1000C000D8E0DEBFCDBF11E0A0E0B1E0E8E5F9E1A6
:1000D00002C005900D92AC36B107D9F722E0ACE62C
:1000E000B1E001C01D92A83EB207E1F710E0CDE5F6
:1000F000D0E004C02197FE010E94A40CCC35D107AA
:10010000C9F70E9434080C94AA0C0C94000090E0EB
:10011000FC01EC55FF4F2491FC01E057FF4F349157
:10012000FC01E458FF4FE491EE23C9F0222339F09B
:10013000233001F1A8F4213019F1223029F1F0E047
:10014000EE0FFF1FEE58FF4FA591B4918FB7F894B3
:10015000EC91611126C030953E233C938FBF0895EA
:100160002730A9F02830C9F0243049F78091800069
:100170008F7D03C0809180008F7780938000DFCFD8
:1001800084B58F7784BDDBCF84B58F7DFBCF809125
:10019000B0008F778093B000D2CF8091B0008F7D78
:1001A000F9CF3E2BDACFCF93DF9390E0FC01E057FD
:1001B000FF4F249184589F4FFC0184918823D1F0F4
:1001C00090E0880F991FFC01E859FF4FA591B49169
:1001D000FC01EE58FF4FC591D49161110EC09FB73D
:1001E000F8948C91E22FE0958E238C932881E22362
:1001F000E8839FBFDF91CF9108958FB7F894EC917A
:10020000E22BEC938FBFF6CF3FB7F89480912F028B
:1002100090913002A0913102B091320226B5A89B94
:1002200005C02F3F19F00196A11DB11D3FBFBA2F88
:10023000A92F982F8827BC01CD01620F711D811D48
:10024000911D42E0660F771F881F991F4A95D1F7CD
:1002500008958F929F92AF92BF92CF92DF92EF92CA
:10026000FF924B015C010E9404016B017C010E9422
:1002700004016C197D098E099F09683E7340810550
:100280009105A8F321E0821A9108A108B10888EE2F
:10029000C80E83E0D81EE11CF11C81149104A10456
:1002A000B10429F7FF90EF90DF90CF90BF90AF900F
:1002B0009F908F90089508950895AF92BF92CF9226
:1002C000DF92EF92FF920F931F93CF93DF936C0116
:1002D0007B018B01040F151FEB015E01AE18BF08F7
:1002E000C017D10759F06991D601ED91FC910190A9
:1002F000F081E02DC6010995892B79F7C501DF91C1
:10030000CF911F910F91FF90EF90DF90CF90BF9012
:10031000AF900895FC01538D448D252F30E0842F3C
:1003200090E0821B930B541710F0CF96089501971D
:100330000895FC01918D828D981761F0A28DAE0F0A
:10034000BF2FB11D5D968C91928D9F5F9F73928F91
:1003500090E008958FEF9FEF0895FC01918D828DBD
:10036000981731F0828DE80FF11D858D90E008958A
:100370008FEF9FEF0895FC01918D228D892F90E0E2
:10038000805C9F4F821B91098F739927089583E3A7
:1003900092E00E94BB0121E0892B09F420E0822F2A
:1003A000089580E090E0892B29F00E94C701811117
:1003B0000C9400000895FC01A48DA80FB92FB11D65
:1003C000A35ABF4F2C91848D90E001968F7399278B
:1003D000848FA689B7892C93A089B1898C91837069
:1003E00080648C93938D848D981306C00288F38962
:1003F000E02D80818F7D80830895EF92FF920F938F
:100400001F93CF93DF93EC0181E0888F9B8D8C8DC0
:1004100098131AC0E889F989808185FF15C09FB7B4
:10042000F894EE89FF896083E889F9898081837077
:10043000806480839FBF81E090E0DF91CF911F9126
:100440000F91FF90EF900895F62E0B8D10E00F5F47
:100450001F4F0F731127E02E8C8D8E110CC00FB61D
:1004600007FCFACFE889F989808185FFF5CFCE01B5
:100470000E94DB01F1CFEB8DEC0FFD2FF11DE35A54
:10048000FF4FF0829FB7F8940B8FEA89FB89808138
:100490008062CFCFCF93DF93EC01888D8823B9F0B2
:1004A000AA89BB89E889F9898C9185FD03C080817F
:1004B00086FD0DC00FB607FCF7CF8C9185FFF2CFFC
:1004C000808185FFEDCFCE010E94DB01E9CFDF9176
:1004D000CF9108952091D401260F3327331F213265
:1004E0003105ECF42091F801FC0190E080E024302B
:1004F00069F082E00895A091D4012191AC014C549F
:100500005E4FA40FB52FB11D2C930196861798F35B
:100510008091D401680F6093D40180E0089581E058
:1005200008951092F80181E08093FA011092F90188
:1005300061E082E10E94870061E083E10E94870020
:10054000E9EBF0E080818E7F808380818D7F8083E6
:1005500088E48093B80085E48093BC000895CF932D
:10056000DF9391E09093B3018823B9F0C091B80074
:10057000D091BA008091BC008A7B8093BC0060E07F
:1005800082E10E94870060E083E10E9487000E9470
:100590009102D093BA00C093B800DF91CF91089533
:1005A0000895E091250280912402E81730F4F0E0EC
:1005B000E257FE4F808190E008958FEF9FEF0895FE
:1005C00090912502809124022FEF3FEF981748F475
:1005D000E92FF0E0E257FE4F208130E09F5F9093DB
:1005E0002502C90108958091240290912502891B5A
:1005F000990B0895CF92DF92EF92FF920F931F9382
:10060000CF93DF937C01CB018A0120918D012223BE
:1006100089F0EB016B01C40ED51ECC15DD0569F028
:100620006991D701ED91FC910190F081E02DC70116
:100630000995F3CF642F0E946A02C801DF91CF9120
:100640001F910F91FF90EF90DF90CF900895CF937F
:10065000DF931F92CDB7DEB7698320918D012223EE
:10066000F9F020912202203258F021E030E0FC0124
:100670003383228390E080E00F90DF91CF91089543
:1006800080912302E82FF0E0E359FE4F9981908397
:100690008F5F809323028093220281E090E0ECCF71
:1006A00061E0CE0101960E946A02F7CFCF92DF92FD
:1006B000EF92FF920F931F93CF93DF93FC01C481BE
:1006C00021E020938D01C0936C01109223021092BF
:1006D00022028385682B80ED92E00E942703D0914F
:1006E0002202D13208F092C00E9404016B017C0109
:1006F0008091F801811165C082E08093F80181E06A
:100700008093FA018FEF8093F70110921C02D0932F
:100710001B02ADE6B1E0EBEFF1E080E0D81385C05D
:1007200010921D0280911D02CC0FC82BC0931D0298
:100730008091F901813009F07CC01092F9010E948A
:1007400004016B017C0180911D028093BB008091AC
:10075000AF019091B001A091B101B091B201892B8C
:100760008A2B8B2B99F00E9404010091AF0110910C
:10077000B0012091B1013091B2016C197D098E094F
:100780009F090617170728073907E0F18091BC0079
:1007900083FDD9CF85EC8093BC000E9404016B01DE
:1007A0007C018091F801823009F445C08091F70105
:1007B0008F3F61F18091F701803241F18091F70123
:1007C00025C08091AF019091B001A091B101B0918D
:1007D000B201892B8A2B8B2B09F48ACF0E9404014A
:1007E0000091AF011091B0012091B1013091B2019F
:1007F0006C197D098E099F09061717072807390705
:1008000008F076CF8091AE010E94AF0210922302D1
:100810001092220210928D01DF91CF911F910F91C2
:10082000FF90EF90DF90CF9008959D9191938F5F0F
:1008300075CF85EEB0CF8091AF019091B001A091BE
:10084000B101B091B201892B8A2B8B2B09F4A9CF6E
:100850000E9404010091AF011091B0012091B101FB
:100860003091B2016C197D098E099F09061717078F
:100870002807390708F095CFC5CF089590E080E0AC
:100880000895FB0101900020E9F73197AF01461B65
:10089000570BDC01ED91FC910280F381E02D09946E
:1008A0008F929F92AF92BF92EF92FF920F931F93FE
:1008B000CF93DF93CDB7DEB7A1970FB6F894DEBF25
:1008C0000FBECDBF7C01FA01CB0119A2223008F482
:1008D0002AE08E010F5D1F4F822E912CB12CA12C8E
:1008E000BF01A50194010E94820CF901CA016A307E
:1008F0000CF5605DD8016E938D01232B242B252BE5
:1009000079F790E080E0109721F0BD01C7010E94C7
:100910004104A1960FB6F894DEBF0FBECDBFDF91A4
:10092000CF911F910F91FF90EF90BF90AF909F904C
:100930008F900895695CDECF2F923F924F925F9225
:100940006F927F928F929F92AF92BF92CF92DF92DF
:10095000EF92FF921F93CF93DF93EC016A017B012B
:10096000722EAB019601CB01B6010E947D0C68E3AB
:1009700071E0811126C046015701E894B7F82FEFC6
:100980003FEF4FE75FE7C501B4010E947D0C811185
:100990000CC02FEF3FEF4FE75FE7C501B4010E94A6
:1009A000B30A6CE371E0181664F02FEF3FEF4FE7E6
:1009B0005FE4C701B6010E940B0C1816B4F460E4A2
:1009C00071E0CE01DF91CF911F91FF90EF90DF900A
:1009D000CF90BF90AF909F908F907F906F905F90DF
:1009E0004F903F902F900C9441042FEF3FEF4FE733
:1009F0005FECC701B6010E94B30A87FDE0CF20E09B
:100A000030E0A901C701B6010E94B30A312C212CA4
:100A100087FF0DC0E881F9810190F081E02D6DE242
:100A2000CE0109951C01F7FAF094F7F8F09410E064
:100A300060E070E080E09FE3711641F020E030E07C
:100A400040E251E40E94B80A1F5FF6CFA701960169
:100A50000E94470A2B013C010E942A0B4B015C01BA
:100A60002AE0BC01A401CE010E9450047C01E20CEA
:100A7000F31C1123E1F1C501B4010E94590B9B0144
:100A8000AC01C301B2010E94460A4B015C01E8813E
:100A9000F9810190F081E02D6EE2CE010995E80E1A
:100AA000F91E115020F120E030E040E251E4C50190
:100AB000B4010E94100C2B013C010E942A0B4B0137
:100AC000B12CA12C2AE0B501A401CE010E94500452
:100AD000E80EF91EC501B4010E94590B9B01AC013F
:100AE000C301B2010E94460A4B015C01DACFC70183
:100AF000DF91CF911F91FF90EF90DF90CF90BF904B
:100B0000AF909F908F907F906F905F904F903F90AD
:100B10002F9008950F931F93CF938C01C62F0E949F
:100B200056036C2F6460C8010E9456036C2F6B7FC4
:100B3000C8010E94560383EC90E00197F1F7CF9132
:100B40001F910F9108950F931F93CF93DF938C0103
:100B5000D62FC42F607F642B0E948A0580E1D89F26
:100B6000B00111246C2BC801DF91CF911F910F911F
:100B70000C948A05CF93DF93CDB7DEB728970FB6D5
:100B8000F894DEBF0FBECDBF98E0E0E0F1E0DE01FB
:100B9000119601900D929A95E1F79091E4029617C3
:100BA00008F46FEF262F30E0220F331F41E050E0B2
:100BB0004C0F5D1F240F351FF9016081680F6068BD
:100BC00040E08CED92E028960FB6F894DEBF0FBEA1
:100BD000CDBFDF91CF910C94A30541E00E94A30506
:100BE00081E090E0089585ED8093BC008091AF0195
:100BF0009091B001A091B101B091B2010796A11DF1
:100C0000B11D23E0B695A795979587952A95D1F7BD
:100C10002091BC0024FD03C01092F801089540917A
:100C2000AF015091B0016091B1017091B201452BBB
:100C3000462B472B69F30097A105B10541F02AE245
:100C40002A95F1F700C00197A109B109E1CF809180
:100C5000AE010C94AF021F920F920FB60F921124A7
:100C60002F933F938F939F93AF93BF9380912B02CA
:100C700090912C02A0912D02B0912E0230912A0267
:100C800023E0230F2D3758F50196A11DB11D2093A8
:100C90002A0280932B0290932C02A0932D02B093F2
:100CA0002E0280912F0290913002A0913102B091DA
:100CB00032020196A11DB11D80932F029093300244
:100CC000A0933102B0933202BF91AF919F918F9167
:100CD0003F912F910F900FBE0F901F90189526E80F
:100CE000230F0296A11DB11DD2CF1F920F920FB6F6
:100CF0000F9211242F933F934F935F936F937F93A2
:100D00008F939F93AF93BF93EF93FF9383E392E00F
:100D10000E94DB01FF91EF91BF91AF919F918F9165
:100D20007F916F915F914F913F912F910F900FBEE7
:100D30000F901F9018951F920F920FB60F921124CB
:100D40002F938F939F93EF93FF93E0914302F09142
:100D500044028081E0914902F0914A0282FD1BC069
:100D6000908180914C028F5F8F7320914D0282178A
:100D700041F0E0914C02F0E0ED5CFD4F958F8093E7
:100D80004C02FF91EF919F918F912F910F900FBE89
:100D90000F901F9018958081F4CF1F920F920FB67D
:100DA0000F9211242F933F934F935F936F937F93F1
:100DB0008F939F93AF93BF93EF93FF938091B9006D
:100DC000887F803609F44AC0F0F5883209F4A7C05C
:100DD00018F5803109F49BC0B8F4882309F4F9C0F0
:100DE000883009F494C0FF91EF91BF91AF919F912A
:100DF0008F917F916F915F914F913F912F910F90C4
:100E00000FBE0F901F901895883109F488C080326A
:100E100051F78093F70114C0803409F49DC040F469
:100E20008033B9F38833F9F68093F70185ECB0C0CD
:100E3000803509F485C0883509F496C0883499F660
:100E40000E94F305D0CF883909F48CC038F5883773
:100E500029F050F4883611F0803729F683E080932A
:100E6000F8011092F60157C0883809F47BC0803928
:100E700019F0803809F0B7CF8091F601803208F080
:100E800071C0E091F60181E08E0F8093F6018091B0
:100E9000BB00F0E0EA52FE4F80833DC0803B39F05A
:100EA000E0F4803A09F479C0883A09F09CCF84E0F4
:100EB0008093F8011092D5011092D401E0912002A4
:100EC000F091210209958091D40181110FC081E038
:100ED0008093D4011092B40109C0803C09F4A6CFDC
:100EE000883C09F4A3CF883B09F07DCFE091D50180
:100EF00081E08E0F8093D501F0E0EC54FE4F8081AD
:100F00008093BB009091D5018091D40129C080913C
:100F10001D028093BB0085EC8093BC0064CF909150
:100F20001C0280911B02981758F5E0911C0281E089
:100F30008E0F80931C02F0E0E550FE4F8081E9CFD8
:100F4000E0911C0281E08E0F80931C028091BB0017
:100F5000F0E0E550FE4F808390911C0280911B02CF
:100F60009817C8F285E8D8CFE0911C0281E08E0F77
:100F700080931C028091BB00F0E0E550FE4F80831F
:100F80008091FA0181115CCF81E08093F90184EABC
:100F90008093BC001092F80126CF85EC8093BC00B2
:100FA0001092F8018091F601803230F4E091F60160
:100FB000F0E0EA52FE4F10826091F60170E0E0919D
:100FC0001E02F0911F0286ED91E009951092F60144
:100FD0000ACF1092F70134CFE3E3F2E013821282DA
:100FE00088EE93E0A0E0B0E084839583A683B78386
:100FF0002CE031E03183208325EC30E035872487F5
:1010000024EC30E03787268720EC30E0318B208BD2
:1010100021EC30E0338B228B22EC30E0358B248BBB
:1010200026EC30E0378B268B118E128E138E148EA9
:10103000E0EDF2E01382128284839583A683B78366
:101040008EE191E091838083ECEDF2E013821282D5
:1010500080E391E09183808387E2848384E18187C8
:1010600084E0828713860895789484B5826084BD75
:1010700084B5816084BD85B5826085BD85B581609C
:1010800085BD80916E00816080936E00109281001A
:1010900080918100826080938100809181008160D5
:1010A0008093810080918000816080938000809196
:1010B000B10084608093B1008091B0008160809322
:1010C000B00080917A00846080937A0080917A00E9
:1010D000826080937A0080917A00816080937A00A8
:1010E00080917A00806880937A001092C10060E05D
:1010F0008EE00E94D30061E084E00E94D30061E0B2
:1011000087E00E94D30061E08AE00E94D300E09172
:101110004302F091440282E08083E0913F02F0912B
:1011200040021082E0914102F09142028FEC8083F4
:1011300010924B02E0914702F091480286E08083D2
:10114000E0914502F0914602808180618083E091C8
:101150004502F0914602808188608083E0914502DB
:10116000F0914602808180688083E0914502F09191
:10117000460280818F7D808364E471E083E392E0A6
:101180000E94410461E571E083E392E00E94410422
:101190001092250210922402109223021092220231
:1011A0000E9491028BE591E09093210280932002AE
:1011B0008CE591E090931F0280931E021092E10251
:1011C0008091E602823018F098E09093E1028093DB
:1011D000E40262E370E080E090E00E942901609107
:1011E000E7028CED92E00E94560368EE73E080E027
:1011F00090E00E94290160E38CED92E00E948A0554
:10120000CBE4D6E4CE010197F1F760E38CED92E0F8
:101210000E948A052197F1F760E38CED92E00E942D
:101220008A0583E592E00197F1F760E28CED92E0A8
:101230000E948A056091E102606240E08CED92E0DC
:101240000E94A30584E08093E20240E06CE08CED14
:1012500092E00E94A30540E061E08CED92E00E94E4
:10126000A305CBE3DFE1CE010197F1F782E08093A4
:10127000E30240E066E08CED92E00E94A30540E0CE
:1012800062E08CED92E00E94A305CE010197F1F798
:1012900040E061E08CED92E00E94A3052197F1F718
:1012A00088E08093E70260E08CED92E00E945603B4
:1012B00010E4C0E0D0E010937C0080917A0080645C
:1012C00080937A0080917A0086FDFCCF609178004F
:1012D00070917900072E000C880B990B0E945B0B14
:1012E00020E030E040EA50E40E94100C20E030E0C2
:1012F00040E85AE30E94100C2CE83EE24AEB5DE322
:101300000E94B80A6B017C012CEE31E548EB5DE3ED
:101310000E94B30A87FD89C0C0922602D09227029C
:10132000E0922802F092290264E571E083E392E002
:101330000E944104409126025091270260912802A8
:101340007091290222E083E392E00E949C0461E50F
:1013500071E083E392E00E9441046AE070E080E083
:1013600090E00E94290160E086E00E94BA056EE5E7
:1013700071E08CED92E00E94410461E080E00E9407
:10138000BA0562E671E08CED92E00E94410461E0F2
:1013900088E00E94BA054091260250912702609190
:1013A00028027091290222E08CED92E00E949C04B8
:1013B000C0902602D0902702E0902802F0902902E7
:1013C0002AE939E949E251E4C701B6010E94B30AAA
:1013D00087FF34C061E087E00E94870061E087E01A
:1013E0000E94870061E08AE00E94870068EE73E057
:1013F00080E090E00E94290160E087E00E94870081
:1014000060E08AE00E94870068EE73E080E090E090
:101410000E942901209709F44ECF0E94C70188231A
:1014200009F449CF0E94000046CF10922602109284
:101430002702109228021092290276CF20E030E095
:1014400048E351E4C701B6010E94B30A87FF11C007
:1014500061E084E00E94870061E084E00E948700F0
:1014600068EE73E080E090E00E94290160E084E093
:10147000C9CF60E084E00E94870060E087E00E94BE
:10148000870060E08AE00E948700C4CF5058BB27E5
:10149000AA270E945E0A0C94D10B0E94C30B38F05D
:1014A0000E94CA0B20F039F49F3F19F426F40C94E3
:1014B000C00B0EF4E095E7FB0C94BA0BE92F0E94E9
:1014C000E20B58F3BA17620773078407950720F0F9
:1014D00079F4A6F50C94040C0EF4E0950B2EBA2FBB
:1014E000A02D0B01B90190010C01CA01A00111242A
:1014F000FF27591B99F0593F50F4503E68F11A16D6
:10150000F040A22F232F342F4427585FF3CF469566
:1015100037952795A795F0405395C9F77EF41F1688
:10152000BA0B620B730B840BBAF09150A1F0FF0F52
:10153000BB1F661F771F881FC2F70EC0BA0F621F3E
:10154000731F841F48F4879577956795B795F7952E
:101550009E3F08F0B0CF9395880F08F09927EE0FC3
:101560009795879508950E94960B08F481E0089559
:101570000E94CC0A0C94D10B0E94CA0B58F00E9416
:10158000C30B40F029F45F3F29F00C94BA0B5111C2
:101590000C94050C0C94C00B0E94E20B68F3992389
:1015A000B1F3552391F3951B550BBB27AA2762175F
:1015B0007307840738F09F5F5F4F220F331F441F6C
:1015C000AA1FA9F335D00E2E3AF0E0E832D09150A0
:1015D0005040E695001CCAF72BD0FE2F29D0660F8D
:1015E000771F881FBB1F261737074807AB07B0E8D0
:1015F00009F0BB0B802DBF01FF2793585F4F3AF0D6
:101600009E3F510578F00C94BA0B0C94050C5F3F8B
:10161000E4F3983ED4F3869577956795B795F7955B
:101620009F5FC9F7880F911D9695879597F9089543
:10163000E1E0660F771F881FBB1F621773078407DF
:10164000BA0720F0621B730B840BBA0BEE1F88F7EE
:10165000E09508950E94EA0B88F09F5798F0B92F03
:101660009927B751B0F0E1F0660F771F881F991FD7
:101670001AF0BA95C9F714C0B13091F00E94040C69
:10168000B1E008950C94040C672F782F8827B85F79
:1016900039F0B93FCCF3869577956795B395D9F72F
:1016A0003EF490958095709561957F4F8F4F9F4F39
:1016B0000895E89409C097FB3EF490958095709545
:1016C00061957F4F8F4F9F4F9923A9F0F92F96E98E
:1016D000BB279395F695879577956795B795F11103
:1016E000F8CFFAF4BB0F11F460FF1BC06F5F7F4FA0
:1016F0008F4F9F4F16C0882311F096E911C07723B2
:1017000021F09EE8872F762F05C0662371F096E8BA
:10171000862F70E060E02AF09A95660F771F881F89
:10172000DAF7880F9695879597F90895990F00082D
:10173000550FAA0BE0E8FEEF16161706E807F907A3
:10174000C0F012161306E407F50798F0621B730B3E
:10175000840B950B39F40A2661F0232B242B252BBF
:1017600021F408950A2609F4A140A6958FEF811D62
:10177000811D089597F99F6780E870E060E0089503
:101780009FEF80EC089500240A9416161706180699
:101790000906089500240A94121613061406050675
:1017A0000895092E0394000C11F4882352F0BB0F06
:1017B00040F4BF2B11F460FF04C06F5F7F4F8F4F69
:1017C0009F4F089557FD9058440F551F59F05F3FA4
:1017D00071F04795880F97FB991F61F09F3F79F053
:1017E00087950895121613061406551FF2CF4695D5
:1017F000F1DF08C0161617061806991FF1CF869557
:101800007105610508940895E894BB27662777273A
:10181000CB0197F908950E94960B08F48FEF089575
:101820000E94230C0C94D10B0E94C30B38F00E9431
:10183000CA0B20F0952311F00C94BA0B0C94C00B3A
:1018400011240C94050C0E94E20B70F3959FC1F3D8
:10185000950F50E0551F629FF001729FBB27F00D5E
:10186000B11D639FAA27F00DB11DAA1F649F6627B3
:10187000B00DA11D661F829F2227B00DA11D621F02
:10188000739FB00DA11D621F839FA00D611D221FBC
:10189000749F3327A00D611D231F849F600D211DA0
:1018A000822F762F6A2F11249F5750409AF0F1F023
:1018B00088234AF0EE0FFF1FBB1F661F771F881F8C
:1018C00091505040A9F79E3F510580F00C94BA0BFF
:1018D0000C94050C5F3FE4F3983ED4F3869577951E
:1018E0006795B795F795E7959F5FC1F7FE2B880F32
:1018F000911D9695879597F908950E94960B880BF0
:10190000990B0895A1E21A2EAA1BBB1BFD010DC065
:10191000AA1FBB1FEE1FFF1FA217B307E407F5079F
:1019200020F0A21BB30BE40BF50B661F771F881F7B
:10193000991F1A9469F760957095809590959B0111
:10194000AC01BD01CF010895EE0FFF1F0590F4918A
:10195000E02D0994F894FFCF0000400014005400DB
:1019600000000000FD015D018A014A02BB019901EE
:10197000AD01000000002703FA023E04D002F3028A
:10198000E002D10200000000ED055D013E043D04CF
:101990006E616E00696E66006F7666004443207665
:1019A0006F6C746D65746572000D0A00494E505578
:1019B0005420563D200044564D00494E5055542069
:0419C000563D000090
:107E0000112484B714BE81FFF0D085E080938100F7
:107E100082E08093C00088E18093C10086E0809377
:107E2000C20080E18093C4008EE0C9D0259A86E02C
:107E300020E33CEF91E0309385002093840096BBD3
:107E4000B09BFECF1D9AA8958150A9F7CC24DD24C4
:107E500088248394B5E0AB2EA1E19A2EF3E0BF2EE7
:107E6000A2D0813461F49FD0082FAFD0023811F036
:107E7000013811F484E001C083E08DD089C08234E0
:107E800011F484E103C0853419F485E0A6D080C0E4
:107E9000853579F488D0E82EFF2485D0082F10E0AE
:107EA000102F00270E291F29000F111F8ED06801E7
:107EB0006FC0863521F484E090D080E0DECF843638
:107EC00009F040C070D06FD0082F6DD080E0C81688
:107ED00080E7D80618F4F601B7BEE895C0E0D1E017
:107EE00062D089930C17E1F7F0E0CF16F0E7DF06D8
:107EF00018F0F601B7BEE89568D007B600FCFDCFD4
:107F0000A601A0E0B1E02C9130E011968C91119780
:107F100090E0982F8827822B932B1296FA010C0160
:107F200087BEE89511244E5F5F4FF1E0A038BF0790
:107F300051F7F601A7BEE89507B600FCFDCF97BE46
:107F4000E89526C08437B1F42ED02DD0F82E2BD052
:107F50003CD0F601EF2C8F010F5F1F4F84911BD097
:107F6000EA94F801C1F70894C11CD11CFA94CF0C13
:107F7000D11C0EC0853739F428D08EE10CD085E9AC
:107F80000AD08FE07ACF813511F488E018D01DD067
:107F900080E101D065CF982F8091C00085FFFCCF94
:107FA0009093C60008958091C00087FFFCCF809118
:107FB000C00084FD01C0A8958091C6000895E0E648
:107FC000F0E098E1908380830895EDDF803219F02E
:107FD00088E0F5DFFFCF84E1DECF1F93182FE3DFCA
:107FE0001150E9F7F2DF1F91089580E0E8DFEE27F6
:047FF000FF270994CA
:027FFE00040479
:00000001FF
