:020000040000FA
:100000000C945C000C9479000C9479000C947900A9
:100010000C9479000C9479000C9479000C9479007C
:100020000C9479000C9479000C9479000C9479006C
:100030000C9479000C9479000C9479000C9479005C
:100040000C9404010C9479000C9479000C947900C0
:100050000C9479000C9479000C9479000C9479003C
:100060000C9479000C947900000000080002010053
:100070000003040700000000000000000000000072
:10008000250028002B0000000000240027002A0083
:10009000040404040404040402020202020203032E
:1000A0000303030301020408102040800102040836
:1000B000102001020408102011241FBECFEFD8E049
:1000C000DEBFCDBF11E0A0E0B1E0E2E6F4E002C0A7
:1000D00005900D92A230B107D9F721E0A2E0B1E07E
:1000E00001C01D92AD30B207E1F70E944E010C94A1
:1000F0002F020C940000E7EAF0E02491E3E9F0E03D
:100100008491882399F090E0880F991FFC01EA57A9
:10011000FF4FA591B491FC01E458FF4F8591949154
:100120008FB7F894EC91E22BEC938FBF0895EBE638
:10013000F0E02491E7EAF0E09491E3E9F0E0E49163
:10014000EE23C9F0222339F0233001F1A8F4213045
:1001500019F1223029F1F0E0EE0FFF1FE458FF4FB4
:10016000A591B4912FB7F894EC91811126C0909588
:100170009E239C932FBF08952730A9F02830C9F003
:10018000243049F7209180002F7D03C0209180000A
:100190002F7720938000DFCF24B52F7724BDDBCFCE
:1001A00024B52F7DFBCF2091B0002F772093B00096
:1001B000D2CF2091B0002F7DF9CF9E2BDACF3FB761
:1001C000F8948091090190910A01A0910B01B091DE
:1001D0000C0126B5A89B05C02F3F19F00196A11D63
:1001E000B11D3FBFBA2FA92F982F8827BC01CD0181
:1001F000620F711D811D911D42E0660F771F881FE0
:10020000991F4A95D1F708951F920F920FB60F923A
:1002100011242F933F938F939F93AF93BF9380911C
:10022000050190910601A0910701B091080130915C
:10023000040123E0230F2D3758F50196A11DB11DB0
:10024000209304018093050190930601A093070178
:10025000B09308018091090190910A01A0910B01CE
:10026000B0910C010196A11DB11D809309019093DD
:100270000A01A0930B01B0930C01BF91AF919F9124
:100280008F913F912F910F900FBE0F901F90189557
:1002900026E8230F0296A11DB11DD2CF789484B514
:1002A000826084BD84B5816084BD85B5826085BD72
:1002B00085B5816085BD80916E00816080936E0000
:1002C00010928100809181008260809381008091F2
:1002D00081008160809381008091800081608093A3
:1002E00080008091B10084608093B1008091B00063
:1002F00081608093B00080917A00846080937A005E
:1003000080917A00826080937A0080917A00816087
:1003100080937A0080917A00806880937A001092AE
:10032000C1000E947B009BE6E92E90E0F92E00E0E0
:1003300010E0C0910201D09103010E947B00209740
:1003400009F047C080E00E949700209100013091A1
:1003500001018091020190910301820F931F9093FC
:1003600003018093020101978E3F910538F031958A
:100370002195310930930101209300010E94DF0093
:100380002B013C0184E1882E912CA12CB12C0E94E0
:10039000DF006419750986099709683E7340810575
:1003A0009105A8F3F1E08F1A9108A108B10828EE91
:1003B000420E23E0521E611C711C81149104A104A1
:1003C000B10429F70115110509F4B3CF0E9400000B
:1003D000B0CFCF3FD10511F481E0B5CFF7018491C3
:1003E000833019F140F48130B1F08230C9F0C03867
:1003F000D10594F7A7CF873011F1883041F18430CF
:10040000B1F780918000806280938000D0938B0050
:10041000C0938A009ACF84B5806884BDC7BD95CF4C
:1004200084B5806284BDC8BD90CF80918000806813
:1004300080938000D0938900C093880086CF8091FC
:10044000B00080688093B000C093B3007ECF8091ED
:10045000B00080628093B000C093B40076CFF8946F
:04046000FFCF0500C5
:107E0000112484B714BE81FFF0D085E080938100F7
:107E100082E08093C00088E18093C10086E0809377
:107E2000C20080E18093C4008EE0C9D0259A86E02C
:107E300020E33CEF91E0309385002093840096BBD3
:107E4000B09BFECF1D9AA8958150A9F7CC24DD24C4
:107E500088248394B5E0AB2EA1E19A2EF3E0BF2EE7
:107E6000A2D0813461F49FD0082FAFD0023811F036
:107E7000013811F484E001C083E08DD089C08234E0
:107E800011F484E103C0853419F485E0A6D080C0E4
:107E9000853579F488D0E82EFF2485D0082F10E0AE
:107EA000102F00270E291F29000F111F8ED06801E7
:107EB0006FC0863521F484E090D080E0DECF843638
:107EC00009F040C070D06FD0082F6DD080E0C81688
:107ED00080E7D80618F4F601B7BEE895C0E0D1E017
:107EE00062D089930C17E1F7F0E0CF16F0E7DF06D8
:107EF00018F0F601B7BEE89568D007B600FCFDCFD4
:107F0000A601A0E0B1E02C9130E011968C91119780
:107F100090E0982F8827822B932B1296FA010C0160
:107F200087BEE89511244E5F5F4FF1E0A038BF0790
:107F300051F7F601A7BEE89507B600FCFDCF97BE46
:107F4000E89526C08437B1F42ED02DD0F82E2BD052
:107F50003CD0F601EF2C8F010F5F1F4F84911BD097
:107F6000EA94F801C1F70894C11CD11CFA94CF0C13
:107F7000D11C0EC0853739F428D08EE10CD085E9AC
:107F80000AD08FE07ACF813511F488E018D01DD067
:107F900080E101D065CF982F8091C00085FFFCCF94
:107FA0009093C60008958091C00087FFFCCF809118
:107FB000C00084FD01C0A8958091C6000895E0E648
:107FC000F0E098E1908380830895EDDF803219F02E
:107FD00088E0F5DFFFCF84E1DECF1F93182FE3DFCA
:107FE0001150E9F7F2DF1F91089580E0E8DFEE27F6
:047FF000FF270994CA
:027FFE00040479
:00000001FF
