:020000040000FA
:100000000C945D000C9485000C9485000C94850084
:100010000C9485000C9485000C9485000C9485004C
:100020000C9485000C9485000C9485000C9485003C
:100030000C9485000C9485000C9485000C9485002C
:100040000C9415030C9485000C94E3020C94BD02EF
:100050000C9485000C9485000C9485000C9485000C
:100060000C9485000C9485000000000024002700FB
:100070002A0000000000250028002B0004040404CE
:100080000404040402020202020203030303030342
:10009000010204081020408001020408102001021F
:1000A00004081020000000080002010000030407FB
:1000B00000000000000000003E0511241FBECFEF2D
:1000C000D8E0DEBFCDBF11E0A0E0B1E0E2EAFFE0A2
:1000D00002C005900D92A833B107D9F721E0A8E33B
:1000E000B1E001C01D92A23EB207E1F710E0CDE5FC
:1000F000D0E004C02197FE010E94C907CC35D1078A
:10010000C9F70E945F030C94CF070C940000AF92D4
:10011000BF92CF92DF92EF92FF920F931F93CF93F4
:10012000DF936C017B018B01040F151FEB015E0156
:10013000AE18BF08C017D10759F06991D601ED91EB
:10014000FC910190F081E02DC6010995892B79F78A
:10015000C501DF91CF911F910F91FF90EF90DF903C
:10016000CF90BF90AF900895FC01538D448D252F03
:1001700030E0842F90E0821B930B541710F0CF9641
:10018000089501970895FC01918D828D981761F073
:10019000A28DAE0FBF2FB11D5D968C91928D9F5F8A
:1001A0009F73928F90E008958FEF9FEF0895FC0169
:1001B000918D828D981731F0828DE80FF11D858D1C
:1001C00090E008958FEF9FEF0895FC01918D228DAF
:1001D000892F90E0805C9F4F821B91098F73992734
:1001E000089585E491E00E94E50021E0892B09F45F
:1001F00020E0822F089580E090E0892B29F00E9472
:10020000F10081110C9400000895FC01A48DA80F49
:10021000B92FB11DA35ABF4F2C91848D90E0019648
:100220008F739927848FA689B7892C93A089B18968
:100230008C91837080648C93938D848D981306C009
:100240000288F389E02D80818F7D80830895EF926D
:10025000FF920F931F93CF93DF93EC0181E0888F80
:100260009B8D8C8D98131AC0E889F989808185FF50
:1002700015C09FB7F894EE89FF896083E889F989F2
:1002800080818370806480839FBF81E090E0DF91F4
:10029000CF911F910F91FF90EF900895F62E0B8D47
:1002A00010E00F5F1F4F0F731127E02E8C8D8E1102
:1002B0000CC00FB607FCFACFE889F989808185FF69
:1002C000F5CFCE010E940501F1CFEB8DEC0FFD2F94
:1002D000F11DE35AFF4FF0829FB7F8940B8FEA8924
:1002E000FB8980818062CFCFCF93DF93EC01888D33
:1002F0008823B9F0AA89BB89E889F9898C9185FDA1
:1003000003C0808186FD0DC00FB607FCF7CF8C912E
:1003100085FFF2CF808185FFEDCFCE010E940501E0
:10032000E9CFDF91CF91089590E0FC01EC55FF4FAC
:100330002491FC01E057FF4F3491FC01E458FF4F3A
:10034000E491EE23C9F0222339F0233001F1A8F41F
:10035000213019F1223029F1F0E0EE0FFF1FEE58A5
:10036000FF4FA591B4918FB7F894EC91611126C01D
:1003700030953E233C938FBF08952730A9F0283055
:10038000C9F0243049F7809180008F7D03C08091AF
:1003900080008F7780938000DFCF84B58F7784BD16
:1003A000DBCF84B58F7DFBCF8091B0008F778093BA
:1003B000B000D2CF8091B0008F7DF9CF3E2BDACF45
:1003C000CF93DF9390E0FC01E057FF4F24918458D6
:1003D0009F4FFC0184918823D1F090E0880F991FF2
:1003E000FC01E859FF4FA591B491FC01EE58FF4F75
:1003F000C591D49161110EC09FB7F8948C91E22FF2
:10040000E0958E238C932881E223E8839FBFDF91C0
:10041000CF9108958FB7F894EC91E22BEC938FBFB6
:10042000F6CF3FB7F89480913D0190913E01A091A5
:100430003F01B091400126B5A89B05C02F3F19F0A0
:100440000196A11DB11D3FBFBA2FA92F982F882754
:10045000BC01CD01620F711D811D911D42E0660F2F
:10046000771F881F991F4A95D1F708958F929F9201
:10047000AF92BF92CF92DF92EF92FF920E94110251
:100480004B015C0188EEC82E83E0D82EE12CF12CC4
:100490000E941102681979098A099B09683E734014
:1004A00081059105A8F321E0C21AD108E108F108FD
:1004B00088EE880E83E0981EA11CB11CC114D104E3
:1004C000E104F10429F7FF90EF90DF90CF90BF9007
:1004D000AF909F908F900895FC0101900020E9F764
:1004E0003197AF01481B590BBC0185E491E00C9496
:1004F00087008F929F92AF92BF920F931F93CF93DB
:10050000DF93CDB7DEB7A1970FB6F894DEBF0FBE6D
:10051000CDBF19A2423008F44AE08E010F5D1F4F93
:10052000842E912CB12CA12CA50194010E94A70727
:10053000E62FB901CA01EA30F4F4E05DD801EE9388
:100540008D01232B242B252B79F790E080E0109749
:1005500019F0CD010E946C02A1960FB6F894DEBF8F
:100560000FBECDBFDF91CF911F910F91BF90AF9084
:100570009F908F900895E95CE1CF1F920F920FB684
:100580000F9211242F933F934F935F936F937F9319
:100590008F939F93AF93BF93EF93FF9385E491E085
:1005A0000E940501FF91EF91BF91AF919F918F91B3
:1005B0007F916F915F914F913F912F910F900FBE5F
:1005C0000F901F9018951F920F920FB60F92112443
:1005D0002F938F939F93EF93FF93E0915501F091A9
:1005E00056018081E0915B01F0915C0182FD1BC0AE
:1005F000908180915E018F5F8F7320915F018217E0
:1006000041F0E0915E01F0E0EB5BFE4F958F80934F
:100610005E01FF91EF919F918F912F910F900FBEEF
:100620000F901F9018958081F4CF1F920F920FB6F4
:100630000F9211242F933F938F939F93AF93BF9368
:100640008091390190913A01A0913B01B0913C0118
:100650003091380123E0230F2D3758F50196A11D65
:10066000B11D209338018093390190933A01A093F2
:100670003B01B0933C0180913D0190913E01A091DE
:100680003F01B09140010196A11DB11D80933D0134
:1006900090933E01A0933F01B0934001BF91AF9171
:1006A0009F918F913F912F910F900FBE0F901F90B0
:1006B000189526E8230F0296A11DB11DD2CF78947C
:1006C00084B5826084BD84B5816084BD85B5826057
:1006D00085BD85B5816085BD80916E008160809308
:1006E0006E00109281008091810082608093810071
:1006F0008091810081608093810080918000816081
:10070000809380008091B10084608093B1008091DB
:10071000B00081608093B00080917A008460809303
:100720007A0080917A00826080937A0080917A00CA
:10073000816080937A0080917A00806880937A004B
:100740001092C10060E08EE00E94E00161E084E070
:100750000E94E00161E087E00E94E00161E08AE040
:100760000E94E001E0915501F091560182E0808302
:10077000E0915101F09152011082E0915301F0910A
:1007800054018FEC808310925D01E0915901F0914A
:100790005A0186E08083E0915701F09158018081F1
:1007A00080618083E0915701F091580180818860D9
:1007B0008083E0915701F0915801808180688083A7
:1007C000E0915701F091580180818F7D808382E113
:1007D00091E00E946C028FE191E00E946C0210E4B3
:1007E000C0E0D0E010937C0080917A008064809318
:1007F0007A0080917A0086FDFCCF6091780070913C
:100800007900072E000C880B990B0E94800620E0CF
:1008100030E040EA50E40E94350720E030E040E854
:100820005AE30E9435072CE83EE24AEB5DE30E9462
:10083000DD056B017C012CEE31E548EB5DE30E94A8
:10084000D80587FD5CC0C0924101D0924201E09280
:100850004301F092440182E291E00E946C02C09058
:100860004101D0904201E0904301F0904401A70182
:100870009601C701B6010E94A207882309F448C067
:100880008CE291E00E946C028FE191E00E946C0288
:100890000E943602C0904101D0904201E090430195
:1008A000F09044012AE939E949E251E4C701B6016F
:1008B0000E94D80587FFBEC061E087E00E949401D6
:1008C00061E087E00E94940161E08AE00E94940167
:1008D0000E94360260E087E00E94940160E08AE0B6
:1008E0000E9494010E943602209709F47BCF0E9457
:1008F000F100882309F476CF0E94000073CF109294
:100900004101109242011092430110924401A3CF81
:1009100046015701E894B7F82FEF3FEF4FE75FE745
:10092000C501B4010E94A20781110DC02FEF3FEF56
:100930004FE75FE7C501B4010E94D80518161CF403
:1009400080E391E09FCF2FEF3FEF4FE75FE4C701D8
:10095000B6010E94300718161CF484E391E092CF90
:100960002FEF3FEF4FE75FECC701B6010E94D805BC
:1009700087FDF3CF20E030E0A901C701B6010E9456
:10098000D80587FF09C06DE285E491E00E94270148
:10099000F7FAF094F7F8F0942AE037ED43EA5BE3D6
:1009A000C701B6010E946C054B015C010E944F0615
:1009B0006B017C010E947E069B01AC01C501B40164
:1009C0000E946B054B015C014AE0C701B6010E9421
:1009D00079026EE285E491E00E94270120E030E098
:1009E00040E251E4C501B4010E9435074B015C01AE
:1009F0000E944F066B01F12CE12C4AE0C701B601C1
:100A00000E947902C701B6010E947E069B01AC01DB
:100A1000C501B4010E946B0520E030E040E251E4E2
:100A20000E9435070E944F0690E080E04AE00E9455
:100A300079022ACF20E030E048E351E4C701B60153
:100A40000E94D80587FF0DC061E084E00E949401F8
:100A500061E084E00E9494010E94360260E084E03C
:100A60003FCF60E084E00E94940160E087E00E9454
:100A7000940160E08AE00E94940136CFE5E4F1E061
:100A80001382128288EE93E0A0E0B0E08483958325
:100A9000A683B78384E091E09183808385EC90E026
:100AA0009587848784EC90E09787868780EC90E038
:100AB000918B808B81EC90E0938B828B82EC90E029
:100AC000958B848B86EC90E0978B868B118E128EA3
:100AD000138E148E08955058BB27AA270E948305B1
:100AE0000C94F6060E94E80638F00E94EF0620F00B
:100AF00039F49F3F19F426F40C94E5060EF4E095C2
:100B0000E7FB0C94DF06E92F0E94070758F3BA179A
:100B1000620773078407950720F079F4A6F50C9413
:100B200029070EF4E0950B2EBA2FA02D0B01B90169
:100B300090010C01CA01A0011124FF27591B99F053
:100B4000593F50F4503E68F11A16F040A22F232F5F
:100B5000342F4427585FF3CF469537952795A795AF
:100B6000F0405395C9F77EF41F16BA0B620B730B56
:100B7000840BBAF09150A1F0FF0FBB1F661F771FC7
:100B8000881FC2F70EC0BA0F621F731F841F48F47C
:100B9000879577956795B795F7959E3F08F0B0CF05
:100BA0009395880F08F09927EE0F979587950895EC
:100BB0000E94BB0608F481E008950E94F1050C94A0
:100BC000F6060E94EF0658F00E94E80640F029F46D
:100BD0005F3F29F00C94DF0651110C942A070C9406
:100BE000E5060E94070768F39923B1F3552391F3B3
:100BF000951B550BBB27AA2762177307840738F08C
:100C00009F5F5F4F220F331F441FAA1FA9F335D0E8
:100C10000E2E3AF0E0E832D091505040E695001C9C
:100C2000CAF72BD0FE2F29D0660F771F881FBB1F56
:100C3000261737074807AB07B0E809F0BB0B802D34
:100C4000BF01FF2793585F4F3AF09E3F510578F060
:100C50000C94DF060C942A075F3FE4F3983ED4F32C
:100C6000869577956795B795F7959F5FC9F7880F34
:100C7000911D9695879597F90895E1E0660F771F86
:100C8000881FBB1F621773078407BA0720F0621B17
:100C9000730B840BBA0BEE1F88F7E09508950E9442
:100CA0000F0788F09F5798F0B92F9927B751B0F0E8
:100CB000E1F0660F771F881F991F1AF0BA95C9F7E0
:100CC00014C0B13091F00E942907B1E008950C944E
:100CD0002907672F782F8827B85F39F0B93FCCF301
:100CE000869577956795B395D9F73EF4909580955D
:100CF000709561957F4F8F4F9F4F0895E89409C07D
:100D000097FB3EF490958095709561957F4F8F4F3E
:100D10009F4F9923A9F0F92F96E9BB279395F69554
:100D2000879577956795B795F111F8CFFAF4BB0FD2
:100D300011F460FF1BC06F5F7F4F8F4F9F4F16C036
:100D4000882311F096E911C0772321F09EE8872FC0
:100D5000762F05C0662371F096E8862F70E060E07C
:100D60002AF09A95660F771F881FDAF7880F9695F5
:100D7000879597F90895990F0008550FAA0BE0E899
:100D8000FEEF16161706E807F907C0F0121613064D
:100D9000E407F50798F0621B730B840B950B39F48D
:100DA0000A2661F0232B242B252B21F408950A26F3
:100DB00009F4A140A6958FEF811D811D089597F933
:100DC0009F6780E870E060E008959FEF80EC0895F1
:100DD00000240A941616170618060906089500241A
:100DE0000A9412161306140605060895092E039494
:100DF000000C11F4882352F0BB0F40F4BF2B11F408
:100E000060FF04C06F5F7F4F8F4F9F4F089557FD66
:100E10009058440F551F59F05F3F71F04795880F68
:100E200097FB991F61F09F3F79F0879508951216FF
:100E300013061406551FF2CF4695F1DF08C01616AB
:100E400017061806991FF1CF86957105610508945C
:100E50000895E894BB2766277727CB0197F9089573
:100E60000E94BB0608F48FEF08950E9448070C9477
:100E7000F6060E94E80638F00E94EF0620F095235F
:100E800011F00C94DF060C94E50611240C942A074B
:100E90000E94070770F3959FC1F3950F50E0551F0F
:100EA000629FF001729FBB27F00DB11D639FAA27BF
:100EB000F00DB11DAA1F649F6627B00DA11D661F0E
:100EC000829F2227B00DA11D621F739FB00DA11D2F
:100ED000621F839FA00D611D221F749F3327A00DE9
:100EE000611D231F849F600D211D822F762F6A2F85
:100EF00011249F5750409AF0F1F088234AF0EE0FEA
:100F0000FF1FBB1F661F771F881F91505040A9F716
:100F10009E3F510580F00C94DF060C942A075F3F3A
:100F2000E4F3983ED4F3869577956795B795F79552
:100F3000E7959F5FC1F7FE2B880F911D96958795CA
:100F400097F908950E94BB06880B990B0895A1E2BA
:100F50001A2EAA1BBB1BFD010DC0AA1FBB1FEE1F33
:100F6000FF1FA217B307E407F50720F0A21BB30B7E
:100F7000E40BF50B661F771F881F991F1A9469F7FA
:100F800060957095809590959B01AC01BD01CF0156
:100F90000895EE0FFF1F0590F491E02D0994F89449
:100FA000FFCF0000000027018700B4007401E500B6
:100FB000C300D700444320766F6C746D657465720E
:100FC000000D0A00494E50555420563D20006E61D8
:0A0FD0006E00696E66006F76660021
:107E0000112484B714BE81FFF0D085E080938100F7
:107E100082E08093C00088E18093C10086E0809377
:107E2000C20080E18093C4008EE0C9D0259A86E02C
:107E300020E33CEF91E0309385002093840096BBD3
:107E4000B09BFECF1D9AA8958150A9F7CC24DD24C4
:107E500088248394B5E0AB2EA1E19A2EF3E0BF2EE7
:107E6000A2D0813461F49FD0082FAFD0023811F036
:107E7000013811F484E001C083E08DD089C08234E0
:107E800011F484E103C0853419F485E0A6D080C0E4
:107E9000853579F488D0E82EFF2485D0082F10E0AE
:107EA000102F00270E291F29000F111F8ED06801E7
:107EB0006FC0863521F484E090D080E0DECF843638
:107EC00009F040C070D06FD0082F6DD080E0C81688
:107ED00080E7D80618F4F601B7BEE895C0E0D1E017
:107EE00062D089930C17E1F7F0E0CF16F0E7DF06D8
:107EF00018F0F601B7BEE89568D007B600FCFDCFD4
:107F0000A601A0E0B1E02C9130E011968C91119780
:107F100090E0982F8827822B932B1296FA010C0160
:107F200087BEE89511244E5F5F4FF1E0A038BF0790
:107F300051F7F601A7BEE89507B600FCFDCF97BE46
:107F4000E89526C08437B1F42ED02DD0F82E2BD052
:107F50003CD0F601EF2C8F010F5F1F4F84911BD097
:107F6000EA94F801C1F70894C11CD11CFA94CF0C13
:107F7000D11C0EC0853739F428D08EE10CD085E9AC
:107F80000AD08FE07ACF813511F488E018D01DD067
:107F900080E101D065CF982F8091C00085FFFCCF94
:107FA0009093C60008958091C00087FFFCCF809118
:107FB000C00084FD01C0A8958091C6000895E0E648
:107FC000F0E098E1908380830895EDDF803219F02E
:107FD00088E0F5DFFFCF84E1DECF1F93182FE3DFCA
:107FE0001150E9F7F2DF1F91089580E0E8DFEE27F6
:047FF000FF270994CA
:027FFE00040479
:00000001FF
