:100000000C9435000C945D000C945D000C945D0024
:100010000C945D000C945D000C945D000C945D00EC
:100020000C945D000C945D000C945D000C945D00DC
:100030000C945D000C945D000C945D000C945D00CC
:100040000C94DE010C945D000C944E020C9428027A
:100050000C945D000C945D000C945D000C945D00AC
:100060000C945D000C945D00480311241FBECFEF7B
:10007000D8E0DEBFCDBF11E0A0E0B1E0EEE3F7E0F5
:1000800002C005900D92A833B107D9F721E0A8E38B
:10009000B1E001C01D92A03EB207E1F710E0C5E358
:1000A000D0E004C02197FE010E949703C433D1071A
:1000B000C9F70E9480020C949D030C940000AF923B
:1000C000BF92CF92DF92EF92FF920F931F93CF9345
:1000D000DF936C017B018B01040F151FEB015E01A7
:1000E000AE18BF08C017D10759F06991D601ED913C
:1000F000FC910190F081E02DC6010995892B79F7DB
:10010000C501DF91CF911F910F91FF90EF90DF908C
:10011000CF90BF90AF900895FC01538D448D252F53
:1001200030E0842F90E0821B930B541710F0CF9691
:10013000089501970895FC01918D828D981761F0C3
:10014000A28DAE0FBF2FB11D5D968C91928D9F5FDA
:100150009F73928F90E008958FEF9FEF0895FC01B9
:10016000918D828D981731F0828DE80FF11D858D6C
:1001700090E008958FEF9FEF0895FC01918D228DFF
:10018000892F90E0805C9F4F821B91098F73992784
:10019000089583E491E00E94BD0021E0892B09F4D9
:1001A00020E0822F089580E090E0892B29F00E94C2
:1001B000C90081110C9400000895FC01A48DA80FC2
:1001C000B92FB11DA35ABF4F2C91848D90E0019699
:1001D0008F739927848FA689B7892C93A089B189B9
:1001E0008C91837080648C93938D848D981306C05A
:1001F0000288F389E02D80818F7D80830895EF92BE
:10020000FF920F931F93CF93DF93EC0181E0888FD0
:100210009B8D8C8D98131AC0E889F989808185FFA0
:1002200015C09FB7F894EE89FF896083E889F98942
:1002300080818370806480839FBF81E090E0DF9144
:10024000CF911F910F91FF90EF900895F62E0B8D97
:1002500010E00F5F1F4F0F731127E02E8C8D8E1152
:100260000CC00FB607FCFACFE889F989808185FFB9
:10027000F5CFCE010E94DD00F1CFEB8DEC0FFD2F0D
:10028000F11DE35AFF4FF0829FB7F8940B8FEA8974
:10029000FB8980818062CFCFCF93DF93EC01888D83
:1002A0008823B9F0AA89BB89E889F9898C9185FDF1
:1002B00003C0808186FD0DC00FB607FCF7CF8C917F
:1002C00085FFF2CF808185FFEDCFCE010E94DD005A
:1002D000E9CFDF91CF910895FC0101900020E9F76B
:1002E0003197AF01481B590BBC0183E491E00C949A
:1002F0005F008F929F92AF92BF920F931F93CF9305
:10030000DF93CDB7DEB7A1970FB6F894DEBF0FBE6F
:10031000CDBF19A2423008F44AE08E010F5D1F4F95
:10032000842E912CB12CA12CA50194010E9475035F
:10033000E62FB901CA01EA30F4F4E05DD801EE938A
:100340008D01232B242B252B79F790E080E010974B
:1003500019F0CD010E946C01A1960FB6F894DEBF92
:100360000FBECDBFDF91CF911F910F91BF90AF9086
:100370009F908F900895E95CE1CFCF92DF92EF924A
:10038000FF92CF93DF936B017C016DE283E491E0F8
:100390000E94FF00EC0166277727CB016C197D09CD
:1003A0008E099F094AE00E9479018C0F9D1FDF9101
:1003B000CF91FF90EF90DF90CF9008951F920F9212
:1003C0000FB60F9211242F933F938F939F93AF9368
:1003D000BF9380913F0190914001A0914101B09164
:1003E000420130913E0123E0230F2D3758F501964D
:1003F000A11DB11D20933E0180933F0190934001C8
:10040000A0934101B093420180913A0190913B0148
:10041000A0913C01B0913D010196A11DB11D8093B9
:100420003A0190933B01A0933C01B0933D01BF91F1
:10043000AF919F918F913F912F910F900FBE0F9091
:100440001F90189526E8230F0296A11DB11DD2CF4B
:100450001F920F920FB60F9211242F933F934F9339
:100460005F936F937F938F939F93AF93BF93EF931C
:10047000FF9383E491E00E94DD00FF91EF91BF9133
:10048000AF919F918F917F916F915F914F913F912C
:100490002F910F900FBE0F901F9018951F920F92E3
:1004A0000FB60F9211242F938F939F93EF93FF9387
:1004B000E0915301F09154018081E0915901F09154
:1004C0005A0182FD1BC0908180915C018F5F8F7308
:1004D00020915D01821741F0E0915C01F0E0ED5B5D
:1004E000FE4F958F80935C01FF91EF919F918F91CB
:1004F0002F910F900FBE0F901F9018958081F4CF11
:10050000789484B5826084BD84B5816084BD85B5EE
:10051000826085BD85B5816085BD80916E008160FA
:1005200080936E00109281008091810082608093A0
:1005300081008091810081608093810080918000A2
:100540008160809380008091B10084608093B100CD
:100550008091B00081608093B00080917A008460C7
:1005600080937A0080917A00826080937A008091F3
:100570007A00816080937A0080917A00806880930D
:100580007A001092C100E0915301F091540182E091
:100590008083E0914F01F09150011082E091510170
:1005A000F09152018FEC808310925B01E091570132
:1005B000F091580186E08083E0915501F091560159
:1005C000808180618083E0915501F09156018081A6
:1005D00088608083E0915501F091560180818068A8
:1005E0008083E0915501F091560180818F7D808359
:1005F00082E191E00E946C018AE291E00E946C012C
:100600008DE291E00E946C018AE291E00E946C010F
:100610006091380170913901072E000C880B990BFD
:1006200097FF32C00E94BD018AE291E00E946C01F6
:1006300060913801709139016F5F7F4F709339017C
:10064000609338016A3071051CF3072E000C880B8B
:10065000990B4AE00E9479018AE291E00E946C01C4
:1006600080913801909139010196909339018093DE
:100670003801C0E0D0E02097F1F30E94C900882340
:10068000D1F30E940000F7CF4AE00E947901CCCF5D
:10069000E3E4F1E01382128288EE93E0A0E0B0E0A0
:1006A00084839583A683B78384E091E091838083DC
:1006B00085EC90E09587848784EC90E09787868727
:1006C00080EC90E0918B808B81EC90E0938B828B1F
:1006D00082EC90E0958B848B86EC90E0978B868BF8
:1006E000118E128E138E148E0895A1E21A2EAA1B5B
:1006F000BB1BFD010DC0AA1FBB1FEE1FFF1FA217D2
:10070000B307E407F50720F0A21BB30BE40BF50BCE
:10071000661F771F881F991F1A9469F76095709557
:10072000809590959B01AC01BD01CF010895EE0F1E
:0E073000FF1F0590F491E02D0994F894FFCF7F
:10073E0000000000FF005F008C004C01BD009B001C
:10074E00AF00456D6265646465642073797374658A
:10075E006D2032302F312F3233000D0A0077686949
:08076E006C65206C6F6F7000D8
:00000001FF
